:020000040800F2
:1000000000300020496300088516000887160008A4
:10001000891600088B1600088D16000800000000E5
:100020000000000000000000000000008F16000823
:1000300091160008000000009316000895160008AD
:1000400099630008996300089963000899630008A0
:100050009963000899630008996300089963000890
:100060009963000899630008996300089D160008C9
:100070009963000899630008996300089963000870
:10008000AD160008BD160008CD16000899630008DB
:100090009963000899630008996300089963000850
:1000A0009963000899630008996300089963000840
:1000B0009963000899630008000000009963000834
:1000C0009963000800000000000000009963000828
:1000D0000000000099630008E51600089963000815
:1000E0009963000899630008000000000000000008
:1000F0000000000000000000000000000000000000
:1001000000000000000000000000000000000000EF
:1001100000000000000000009963000899630008D7
:1001200000000000000000000000000000000000CF
:1001300000000000000000000000000000000000BF
:1001400099630008996300080000000099630008A3
:10015000996300089963000899630008996300088F
:100160009963000899630008000000000000000087
:10017000000000000000000000000000000000007F
:08018000000000009963000873
:1001900010B5054C237833B9044B13B10448AFF3C1
:1001A00000800123237010BD080300200000000020
:1001B000488A000808B5034B1BB103490348AFF355
:1001C000008008BD000000000C030020488A0008E1
:1001D000034613F8012B002AFBD1181A0138704787
:1001E00001F0FF01102A2BDB10F0070F08D010F8E8
:1001F000013B013A8B422DD010F0070F42B3F6D1EC
:10020000F0B441EA012141EA014122F007047FF004
:1002100000070023F0E80256083C85EA010586EA5B
:10022000010685FA47F5A3FA87F586FA47F6A5FA97
:1002300087F68EB9EED1F0BC01F0FF0102F00702A3
:1002400032B110F8013B013A83EA010313B1F8D14E
:100250000020704701387047002D06BF354603382F
:10026000073815F0010F07D1013015F4807F02BF68
:10027000013015F4C03F0130F0BC0138704700BFB9
:1002800081F0004102E000BF83F0004330B54FEA47
:1002900041044FEA430594EA050F08BF90EA020FB4
:1002A0001FBF54EA000C55EA020C7FEA645C7FEA47
:1002B000655C00F0E2804FEA5454D4EB5555B8BF6A
:1002C0006D420CDD2C4480EA020281EA030382EADB
:1002D000000083EA010180EA020281EA0303362D6D
:1002E00088BF30BD11F0004F4FEA01314FF4801C40
:1002F0004CEA113102D0404261EB410113F0004F52
:100300004FEA03334CEA133302D0524263EB430308
:1003100094EA050F00F0A780A4F10104D5F1200EA6
:100320000DDB02FA0EFC22FA05F2801841F1000101
:1003300003FA0EF2801843FA05F359410EE0A5F1D5
:1003400020050EF1200E012A03FA0EFC28BF4CF006
:10035000020C43FA05F3C01851EBE37101F00045BC
:1003600007D54FF0000EDCF1000C7EEB00006EEBC9
:100370000101B1F5801F1BD3B1F5001F0CD3490853
:100380005FEA30004FEA3C0C04F101044FEA4452AA
:1003900012F5800F80F09A80BCF1004F08BF5FEA31
:1003A000500C50F1000041EB045141EA050130BD11
:1003B0005FEA4C0C404141EB010111F4801FA4F1B4
:1003C0000104E9D191F0000F04BF01460020B1FA09
:1003D00081F308BF2033A3F10B03B3F120020CDA41
:1003E0000C3208DD02F1140CC2F10C0201FA0CF01F
:1003F00021FA02F10CE002F11402D8BFC2F1200C84
:1004000001FA02F120FA0CFCDCBF41EA0C01904039
:10041000E41AA2BF01EB0451294330BD6FEA040482
:100420001F3C1CDA0C340EDC04F11404C4F120026D
:1004300020FA04F001FA02F340EA030021FA04F37F
:1004400045EA030130BDC4F10C04C4F1200220FAD6
:1004500002F001FA04F340EA0300294630BD21FA14
:1004600004F0294630BD94F0000F83F4801306BFDA
:1004700081F480110134013D4EE77FEA645C18BFCE
:100480007FEA655C29D094EA050F08BF90EA020F65
:1004900005D054EA000C04BF1946104630BD91EA5D
:1004A000030F1EBF0021002030BD5FEA545C05D160
:1004B0004000494128BF41F0004130BD14F580049F
:1004C0003CBF01F5801130BD01F0004545F0FE4113
:1004D00041F470014FF0000030BD7FEA645C1ABF48
:1004E000194610467FEA655C1CBF0B46024650EA7F
:1004F000013406BF52EA033591EA030F41F40021AB
:1005000030BD00BF90F0000F04BF0021704730B530
:100510004FF4806404F132044FF000054FF0000105
:1005200050E700BF90F0000F04BF0021704730B5C6
:100530004FF4806404F1320410F0004548BF40429B
:100540004FF000013EE700BF42004FEAE2014FEAF0
:1005500031014FEA02701FBF12F07F4393F07F4FCB
:1005600081F06051704732F07F4208BF704793F0CE
:100570007F4F04BF41F40021704730B54FF46074E1
:1005800001F0004521F000411CE700BF50EA0102E4
:1005900008BF704730B54FF000050AE050EA01028D
:1005A00008BF704730B511F0004502D5404261EBFD
:1005B00041014FF4806404F132045FEA915C3FF43E
:1005C000D8AE4FF003025FEADC0C18BF03325FEADB
:1005D000DC0C18BF033202EBDC02C2F1200300FA8C
:1005E00003FC20FA02F001FA03FE40EA0E0021FAB1
:1005F00002F11444BDE600BF70B54FF0FF0C4CF49F
:10060000E06C1CEA11541DBF1CEA135594EA0C0F50
:1006100095EA0C0F00F0DEF82C4481EA030621EA8B
:100620004C5123EA4C5350EA013518BF52EA0335C6
:1006300041F4801143F4801338D0A0FB02CE4FF078
:100640000005E1FB02E506F00042E0FB03E54FF0A8
:100650000006E1FB03569CF0000F18BF4EF0010EA0
:10066000A4F1FF04B6F5007F64F5407404D25FEA9C
:100670004E0E6D4146EB060642EAC62141EA55514F
:100680004FEAC52040EA5E504FEACE2EB4F1FD0C91
:1006900088BFBCF5E06F1ED8BEF1004F08BF5FEA0F
:1006A000500E50F1000041EB045170BD06F00046C1
:1006B00046EA010140EA020081EA0301B4EB5C046E
:1006C000C2BFD4EB0C0541EA045170BD41F4801166
:1006D0004FF0000E013C00F3AB8014F1360FDEBF8B
:1006E000002001F0004170BDC4F10004203C35DA67
:1006F0000C341BDC04F11404C4F1200500FA05F3EA
:1007000020FA04F001FA05F240EA020001F000428A
:1007100021F0004110EBD37021FA04F642EB060100
:100720005EEA430E08BF20EAD37070BDC4F10C042A
:10073000C4F1200500FA04F320FA05F001FA04F2EE
:1007400040EA020001F0004110EBD37041F10001DA
:100750005EEA430E08BF20EAD37070BDC4F12005E5
:1007600000FA05F24EEA020E20FA04F301FA05F24D
:1007700043EA020321FA04F001F0004121FA04F2F5
:1007800020EA020000EBD3705EEA430E08BF20EAC5
:10079000D37070BD94F0000F0FD101F000464000FF
:1007A00041EB010111F4801F08BF013CF7D041EA81
:1007B000060195F0000F18BF704703F00046520085
:1007C00043EB030313F4801F08BF013DF7D043EA56
:1007D0000603704794EA0C0F0CEA135518BF95EA0C
:1007E0000C0F0CD050EA410618BF52EA4306D1D193
:1007F00081EA030101F000414FF0000070BD50EAB2
:10080000410606BF1046194652EA430619D094EA3B
:100810000C0F02D150EA013613D195EA0C0F05D125
:1008200052EA03361CBF104619460AD181EA030179
:1008300001F0004141F0FE4141F470014FF0000031
:1008400070BD41F0FE4141F4780170BD70B54FF0CC
:10085000FF0C4CF4E06C1CEA11541DBF1CEA13554C
:1008600094EA0C0F95EA0C0F00F0A7F8A4EB05042E
:1008700081EA030E52EA03354FEA013100F0888025
:100880004FEA03334FF0805545EA131343EA1263EE
:100890004FEA022245EA111545EA10654FEA0026A3
:1008A0000EF000419D4208BF964244F1FD0404F55C
:1008B000407402D25B084FEA3202B61A65EB0305B8
:1008C0005B084FEA32024FF480104FF4002CB6EB75
:1008D000020E75EB030E22BFB61A754640EA0C00F5
:1008E0005B084FEA3202B6EB020E75EB030E22BF35
:1008F000B61A754640EA5C005B084FEA3202B6EB76
:10090000020E75EB030E22BFB61A754640EA9C0034
:100910005B084FEA3202B6EB020E75EB030E22BF04
:10092000B61A754640EADC0055EA060E18D04FEAC2
:10093000051545EA16754FEA06164FEAC30343EA62
:1009400052734FEAC2025FEA1C1CC0D111F4801F2F
:100950000BD141EA00014FF000004FF0004CB6E728
:1009600011F4801F04BF01430020B4F1FD0C88BFC7
:10097000BCF5E06F3FF6AFAEB5EB030C04BFB6EBD2
:10098000020C5FEA500C50F1000041EB045170BDC5
:100990000EF0004E4EEA113114EB5C04C2BFD4EBF2
:1009A0000C0541EA045170BD41F480114FF0000E76
:1009B000013C90E645EA060E8DE60CEA135594EAF2
:1009C0000C0F08BF95EA0C0F3FF43BAF94EA0C0FF5
:1009D0000AD150EA01347FF434AF95EA0C0F7FF46A
:1009E00025AF104619462CE795EA0C0F06D152EABE
:1009F00003353FF4FDAE1046194622E750EA4106A2
:100A000018BF52EA43067FF4C5AE50EA41047FF4B2
:100A10000DAF52EA43057FF4EBAE12E74FF0FF3C17
:100A200006E000BF4FF0010C02E000BF4FF0010CE8
:100A30004DF804CD4FEA410C7FEA6C5C4FEA430C61
:100A400018BF7FEA6C5C1BD001B050EA410C0CBFB0
:100A500052EA430C91EA030F02BF90EA020F002012
:100A6000704710F1000F91EA030F58BF994208BF79
:100A700090422CBFD8176FEAE37040F00100704736
:100A80004FEA410C7FEA6C5C02D150EA013C07D18D
:100A90004FEA430C7FEA6C5CD6D152EA033CD3D0D8
:100AA0005DF8040B704700BF8446104662468C46D2
:100AB0001946634600E000BF01B5FFF7B7FF002805
:100AC00048BF10F1000F01BD4DF808EDFFF7F4FF2E
:100AD0000CBF012000205DF808FB00BF4DF808EDB9
:100AE000FFF7EAFF34BF012000205DF808FB00BFDC
:100AF0004DF808EDFFF7E0FF94BF012000205DF8FE
:100B000008FB00BF4DF808EDFFF7CEFF94BF0120B2
:100B100000205DF808FB00BF4DF808EDFFF7C4FFAB
:100B200034BF012000205DF808FB00BF4FEA410CF4
:100B30007FEA6C5C02D150EA013C0AD14FEA430CD7
:100B40007FEA6C5C02D152EA033C02D14FF0000014
:100B500070474FF0010070474FEA410212F5001252
:100B600015D211D56FF47873B3EB625212D94FEAF4
:100B7000C12343F0004343EA505311F0004F23FADE
:100B800002F018BF404270474FF00000704750EA33
:100B9000013005D111F0004008BF6FF000407047F0
:100BA0004FF00000704700BF00B58BB000230793E3
:100BB0000893099301930293039304930593069377
:100BC00025484FF0A0420260436083600122026129
:100BD000437680F820304FF48061C1624FF4E071B9
:100BE0008162C3600221C16180F830200822426125
:100BF0000376436301F09EFA08BB0AA9002341F87B
:100C00000C3D154802F082F9E0B9012301930293EB
:100C10000023049304220392059306930DEB020133
:100C20000D4801F045FF80B902230193029301A909
:100C3000094801F03DFF58B90BB05DF804FB00F026
:100C400093FCDAE700F090FCDFE700F08DFCEBE7C7
:100C500000F08AFCF0E700BFA003002000B587B0D9
:100C6000002300930193029303930493059319487F
:100C7000194A0260436083600361437680F8203044
:100C80004FF48062C2624FF4E0728262C36001225C
:100C9000C26180F83030042242610376436301F080
:100CA00049FA80B90123009301930023039304229E
:100CB0000292049305936946064801F0F9FE28B9AB
:100CC00007B05DF804FB00F04FFCEBE700F04CFCD4
:100CD000F6E700BF500300200001005010B58AB0B5
:100CE0000023059306930793089309930368B3F1D0
:100CF000A04F04D03C4A934248D00AB010BD0446ED
:100D00003A4A136801331360012B31D0384B5A69CA
:100D100042F400325A615B6903F400330293029B90
:100D200003230593069305A94FF0904002F014FCAD
:100D30003048314B03600023436083608022C260EF
:100D40004FF4807202614FF480624261202282611E
:100D5000C36102F075FAB0B9264BA3635C6200224E
:100D60001146122002F0D0F9122002F013FAC4E763
:100D70001F4B5A6942F080525A615B6903F08053FD
:100D80000193019BC2E700F0EFFBE5E7174A136808
:100D900001331360012B1BD0154B5A6942F400320A
:100DA0005A615B6903F400330493049B1023059399
:100DB0000323069305A94FF0904002F0CDFB0022DB
:100DC0001146122002F0A0F9122002F0E3F994E794
:100DD000074B5A6942F080525A615B6903F08053B5
:100DE0000393039BD8E700BF0001005024030020B9
:100DF00000100240F00300200800024000B583B05C
:100E0000124B5A6942F001025A615B6903F0010317
:100E10000193019B002211460B2002F075F90B2073
:100E200002F0B8F900221146102002F06DF91020EE
:100E300002F0B0F900221146112002F065F91120EC
:100E400002F0A8F903B05DF804FB00BF00100240F7
:100E500070B58AB000240594069407940894099408
:100E6000384B5A6942F400225A615A6902F400224E
:100E70000092009A5A6942F480025A615A6902F457
:100E800080020192019A5A6942F400325A615A6909
:100E900002F400320292029A5A6942F480225A61A4
:100EA0005A6902F480220392039A5A6942F480122A
:100EB0005A615B6903F480130493049B224620214A
:100EC0004FF0904002F096FC4FF4005305934FF41E
:100ED0000413069307941C4E05A9304602F03CFB10
:100EE00041F6FF43059303250695079405A930466F
:100EF00002F032FB20230593012306930794089404
:100F000005A94FF0904002F027FB49F2C00305937A
:100F10000695079405A94FF0904002F01DFB40F69E
:100F2000F77305930695079405A9084802F014FB8A
:100F3000042305930695079405A9054802F00CFBC8
:100F40000AB070BD001002400008004800040048CC
:100F5000000C00480268094B9A4200D0704782B0EA
:100F600003F51C439A6942F000529A619B6903F0B1
:100F700000530193019B02B0704700BF0074014011
:100F8000F0B589B000230393049305930693079368
:100F90000268244B9A4201D009B0F0BD03F51C430E
:100FA0005A6942F480225A615A6902F480220092FE
:100FB000009A5A6942F400225A615A6902F40022E6
:100FC0000192019A5A6942F400325A615B6903F452
:100FD00000330293029B4FF4704303930225049560
:100FE000032406940D26079603A90F4802F0B4FACD
:100FF0004FF44073039304950027059706940794D4
:1010000003A90A4802F0A8FA4FF470630393049509
:1010100005970694079603A94FF0904002F09CFABA
:10102000BAE700BF0074014000040048000800480F
:1010300010B5B0B000242E942F942A942B942C94A5
:101040002D94542221460DEB020005F0D1F91294A3
:1010500013941494242221460DEB020005F0C8F9E4
:101060002022214601A805F0C3F9B348B34B036021
:101070004460846002F082FD002840F0C7810821AE
:10108000AD4802F029FE002840F0C3810A21AA4899
:1010900002F070FE002840F0BF8100232E9306234B
:1010A0002F932EAA0121A44802F0F8FF002840F057
:1010B000B6814FF6DF732A9300232B932C930823DA
:1010C0002D932AAA05219C4802F076FE002840F0C4
:1010D000A98100231593169317931893012219924F
:1010E0001A931B931C931D931E931F9320934FF0F1
:1010F0000053219315AA05218F4803F05BF80028BF
:1011000040F0938130AB47F6EF7243F8782D01221F
:101110000521894803F08CFA002840F0898130AB22
:1011200040F2471243F8782D02220521824803F04D
:101130007FFA002840F07F8130AB48F2031243F879
:10114000782D042205217C4803F072FA002840F033
:1011500075812AAA0021784802F02EFE002840F06E
:1011600070810021159116914FF000631E9322911A
:10117000239124914FF48073259326912791102376
:101180002893299115AA6C4803F014F8002840F020
:101190005B81202328934FF48023299315AA0121F2
:1011A000654803F007F8002840F051811023289388
:1011B0000023299315AA02215F4802F0FBFF0028B3
:1011C00040F04881002326932023289315AA032169
:1011D000594802F0EFFF002840F03F8100231593AB
:1011E0001023289315AA0421534802F0E3FF002896
:1011F00040F0368130AB42F2107243F8782D012274
:1012000000214D4803F014FA002840F02C814FF4DF
:10121000406309930A230A9300210B910C910D91CD
:101220000E930F911091119109AA434803F046F9CA
:10123000002840F01B8109AA01213F4803F03EF934
:10124000002840F0168109AA02213B4803F036F934
:10125000002840F0118109AA0321374803F02EF934
:10126000002840F00C8109AA0421334803F026F934
:10127000002840F007810021019180230293082378
:1012800003930491059106910791089101AB012206
:10129000294803F0E3FA002840F0F7804FF4807308
:1012A000029301AB04220121234803F0D7FA00285E
:1012B00040F0EE808023029301AB102202211E48F1
:1012C00003F0CCFA002840F0E6804FF480730293DC
:1012D00001AB40220321184803F0C0FA002840F077
:1012E000DD808023029301AB4FF480720421124809
:1012F00003F0B4FA002840F0D48000210291039159
:1013000001AB02220C4803F0A9FA002840F0CC807F
:1013100001AB08220121084803F0A0FA002840F0A0
:10132000C68001AB20220221034803F097FA00286F
:1013300040F0C08004E000BF34040020007401408D
:1013400001AB802203216C4803F088FA002840F0AA
:10135000B48001AB4FF400720421674803F07EFAB9
:10136000002840F0AD802AAA0121634802F024FD44
:10137000002840F0A88012AB012211465E4803F01D
:1013800057F9002840F0A28010232D932AAA0221A9
:10139000594802F011FD002840F09B8030AB45F227
:1013A000F05243F8782D01220221534803F040F90E
:1013B000002840F091802AAA03214F4802F0FCFC4B
:1013C000002840F08C8012AB012203214A4803F030
:1013D0002FF9002840F0868008232D932AAA0421A3
:1013E000454802F0E9FC00287FD130AB4FF47A5237
:1013F00043F8782D012204213F4803F019F9002811
:1014000076D13D48FFF7BCFD30B010BD00F0ACF820
:1014100035E600F0A9F839E600F0A6F83DE600F060
:10142000A3F846E600F0A0F853E600F09DF869E660
:1014300000F09AF873E600F097F87DE600F094F873
:1014400087E600F091F88CE600F08EF8A1E600F057
:101450008BF8ABE600F088F8B4E600F085F8BDE65E
:1014600000F082F8C6E600F07FF8D0E600F07CF8E5
:10147000E1E600F079F8E6E600F076F8EBE600F059
:1014800073F8F0E600F070F8F5E600F06DF805E7A7
:1014900000F06AF80EE700F067F816E700F064F86D
:1014A0001FE700F061F828E700F05EF830E700F091
:1014B0005BF836E700F058F842E700F055F848E7E7
:1014C00000F052F84FE700F04FF854E700F04CF806
:1014D0005AE700F049F861E700F046F86BE700F0E2
:1014E00043F870E700F040F876E700F03DF87CE75D
:1014F00000F03AF885E700BF3404002010B5154825
:1015000001F032F980B2144CA08023889BB200EE27
:10151000103AB8EE400A114800F0D8FC782000F0EC
:1015200095FC63889BB200EE103AB8EE400A0C4876
:1015300000F0CCFC792000F089FCA3889BB200EE7F
:10154000103AB8EE400A074800F0C0FC7A2000F0DC
:101550007DFC10BD500300201005002090070020E6
:10156000BC0700206407002072B6FEE700B597B004
:10157000202200210DA804F03BFF002307930893CD
:1015800009930A930B93009301930293039304939B
:101590000593069302230C930122109210221192BC
:1015A00013934FF4601315930CA803F0E7F9E8B90F
:1015B0000F23079302210891002309934FF48062BF
:1015C0000A920B9307A803F0C3FD88B94FF4814337
:1015D00000934FF4807304934FF48053069368464E
:1015E00003F018FF30B917B05DF804FBFFF7BCFF3C
:1015F000FFF7BAFFFFF7B8FF08B500F0B7FCFFF739
:10160000B5FFFFF725FCFFF7F9FBFFF7CDFA00F078
:10161000CBF8FFF723FBFFF70BFD0521084802F08D
:1016200013FC02220749084800F0F6FF074800F0C3
:1016300063FF00F05DFA00F083FA00F0E3FAFAE7E6
:101640003404002010050020A003002050030020D7
:101650007047000082B00A4B9A6942F001029A6119
:101660009A6902F001020092009ADA6942F080520F
:10167000DA61DB6903F080530193019B02B070478C
:1016800000100240FEE7FEE7FEE7FEE7FEE77047D8
:101690007047704708B500F07BFC08BD08B50248EC
:1016A00001F0FFFE08BD00BFF003002008B50248AE
:1016B00001F0F7FE08BD00BF1805002008B502487C
:1016C00001F0EFFE08BD00BF5C05002008B503482F
:1016D00001F064F8024801F061F808BDA0030020A1
:1016E0005003002010B5074C204604F0E3F82368AF
:1016F000DA6912F0100F00D110BD10221A6200F04A
:10170000C9F9F9E7A006002070B50D461646002479
:1017100004E000F00BF9287001340135B442F8DB25
:10172000304670BD70B51646002405E04D1C0878A3
:1017300000F0E6F801342946B442F7DB304670BDCC
:1017400008B503460B4A126842B10A4A10680344BE
:101750006A46934206D8074A136008BD054A0649FF
:101760001160F2E704F01AFE0C2303604FF0FF3023
:10177000F3E700BF28030020F00700204FF0FF3000
:1017800070474FF400534B600020704701207047B2
:1017900000207047034AD2F8883043F47003C2F83F
:1017A0008830704700ED00E008B50B480B4B036034
:1017B0004FF4E133436000238360C36003610C2274
:1017C00042618361C3610362436204F0DFFC00B9DC
:1017D00008BDFFF7C9FEFBE7A0060020004400405B
:1017E00010B588B0002303930493059306930793E1
:1017F00002682D4B9A4201D008B010BD044603F593
:10180000E633DA6942F40032DA61DA6902F400326E
:101810000192019A5A6942F400325A615B6903F4F9
:1018200000330293029B0C230393022304930323AC
:1018300006930723079303A94FF0904001F08CFE15
:101840001A481B4B03600023436083608022C26000
:10185000036143618361C36101F0F2FCF0B9134B92
:1018600023675C621348144B03601023436000231A
:1018700083608022C260036143618361C36101F0C0
:10188000DFFC70B90B4BE3665C6200221146262038
:1018900001F03AFC262001F07DFCADE7FFF764FE85
:1018A000DDE7FFF761FEEDE700440040180500208A
:1018B0006C0002405C0500208000024008B50F4B20
:1018C000DA689B689A420DD00C4B19688854DA6824
:1018D0000132DA609969013199615B689A4208D0F6
:1018E000002008BD054B9B69002BEDD0FFF73CFEA7
:1018F000F6E7024B0022DA60F2E700BF04000020A6
:10190000094B93F820300BB10120704710B5064CFD
:10191000012384F82030C0B2FFF7D0FF002384F801
:101920002030012010BD00BF0400002000207047BF
:101930000268084B9A4200D07047074B93F8243056
:10194000012BF9D1044B5A699A60002283F82020B8
:10195000F2E700BF0044004004000020154B9B6FDD
:10196000202B00D0704710B5012380F82030846808
:101970008269A11841614368994213D802610ED06F
:101980000023836101688468C369026912FB03F262
:1019900092B203FB0411074803F0C0FE10BD002300
:1019A0004361EDE71B1B0361D31A8361002343618D
:1019B000E8E700BFA0060020124BDB6F202B02D00F
:1019C000104BD86F704770B50F4D4026324600213E
:1019D000284604F00DFD0D4B01221A70094C2268B7
:1019E000136843F01003136032462946204604F082
:1019F00081FC236F1A68136823F004031360014B02
:101A0000D86F70BDA00600202407002030030020FE
:101A100070B5164B5B68C02B24D8144D002169604B
:101A2000134C4FF48072204604F0E2FC6868114BBE
:101A3000204403F140021E685D689C68D968066016
:101A400045608460C160103310309342F3D1074C7D
:101A500063684033636000232370FFF7ADFF012309
:101A6000237202E0044805F027F970BD300300201E
:101A7000A005002024070020B08A000808B50268ED
:101A8000034B9A4200D008BDFFF7C2FFFBE700BF3F
:101A90000044004008B5144B1B685B683F2B05D819
:101AA000124BDB6F222B02D0FFF7B2FF08BD0F4BAA
:101AB0001B689A6812F0400FF6D09A6822F0400234
:101AC0009A600A4B186F08B101F0A4FC074B196823
:101AD0000A6822F490720A6019688A6822F001028A
:101AE0008A602022DA67DFE718050020A0060020C0
:101AF00008B5074B1B7A03B108BD0021044B5960A0
:101B00004FF48072034804F073FCFFF755FFF3E7CE
:101B100030030020A0050020014B187A704700BF59
:101B200030030020014B1872704700BF30030020C3
:101B300001230370014B4360704700BF0400002085
:101B400008B52A4B1B78102B0DD8DFE803F0090DE0
:101B50000C0C230C0C0C2D0C0C0C0C0C0C3B450031
:101B60002248FFF7E5FF08BD204B586890F8203069
:101B7000002BF8D11E4B1B781C4A1370012B03D08D
:101B80001B4B01221A70EEE78369002BEBD0FFF7A5
:101B9000E5FEE8E7154B5B6893F82030002BE2D1B7
:101BA000124B01221A70DEE7104B5B6893F820306D
:101BB000002BD8D10D4B0F4A5A6001220E490A70F2
:101BC0001A70D0E7094B5B6893F82030002BCAD11C
:101BD000064B01221A70C6E7044B5B6893F820306D
:101BE000002BC0D1014B01221A70BCE73C0300203E
:101BF0002C01002004000020280000200123037095
:101C00007047000008B5254B1B7A012B07D013B194
:101C1000022B0CD008BD2248FFF7F0FFFAE7FFF7D0
:101C20007BFF0128F6D11D4B02221A72F2E7202118
:101C30004FF0904001F0F8FD1A4B1B78532B01D068
:101C4000732B1DD1174B9B78412B0FD0612B0DD0DF
:101C50004F2B01D06F2B16D1782000F089F8792016
:101C600000F086F87A2000F083F80CE0782000F08D
:101C70001FF8792000F01CF87A2000F019F802E033
:101C8000094805F019F80749084805F015F800203B
:101C9000FFF748FF014B01221A72BBE73C0300200B
:101CA00044030020A0050020C08A0008D88A00084C
:101CB00010B5583822282CD8DFE800F0122C462B1B
:101CC0002B2B2B2B2B2B2B2B2B2B2B2B2B2B2B2B64
:101CD0002B2B2B2B2B2B2B2B2B2B2B2B122C46007C
:101CE000224C0521204602F0AFF8012200212046B7
:101CF00002F0DCF802220021204602F0D7F804228C
:101D00000121204602F0D2F808220121204602F0EB
:101D1000CDF810BD154C0521204602F095F8102293
:101D20000221204602F0C2F820220221204602F0C1
:101D3000BDF840220321204602F0B8F8802203219A
:101D4000204602F0B3F8E4E7084C0521204602F0F3
:101D50007BF84FF480720421204602F0A7F84FF47C
:101D600000720421204602F0A1F8D2E734040020DA
:101D700010B55838222828D8DFE800F012283E276E
:101D800027272727272727272727272727272727E3
:101D900027272727272727272727272712283E00F7
:101DA0001C4C01220021204602F0CEF80222002124
:101DB000204602F0C9F804220121204602F0C4F8AE
:101DC00008220121204602F0BFF810BD114C10225C
:101DD0000221204602F0B8F820220221204602F01B
:101DE000B3F840220321204602F0AEF880220321FE
:101DF000204602F0A9F8E8E7064C4FF4807204216F
:101E0000204602F0A1F84FF400720421204602F0AF
:101E10009BF8DAE734040020DFED0A7AB4EEE70A33
:101E2000F1EE10FA0ADCDFED087AB4EEE70AF1EE23
:101E300010FA02D59FED040A704770479FED010A22
:101E4000704700BF00E343470000134310B504464A
:101E5000FFF7E2FFA4F1580022281ED8DFE800F0C7
:101E6000121E2A1D1D1D1D1D1D1D1D1D1D1D1D1D9F
:101E70001D1D1D1D1D1D1D1D1D1D1D1D1D1D1D1D92
:101E8000121E2A00104B1A68BCEEC00A10EE103A5F
:101E90009BB2C2F89C30C2F81C3110BD0A4B1A68C4
:101EA000BCEEC00A10EE103A9BB2C2F89C31C2F8E8
:101EB0001C32F2E7044B1A68BCEEC00A10EE103A6E
:101EC0009BB2C2F89C32E8E73404002010B5044607
:101ED00090ED077A80ED087AD0ED066AC0ED076ACA
:101EE000D0ED0A7A37EEC00A80ED060AD0ED037A0B
:101EF00020EE270AD0ED047A66EEA76A30EE260AB5
:101F0000D0ED057A27EE277A30EE070AD0ED097A70
:101F100030EE270A80ED090AFFF77EFF84ED090AFB
:101F200010BD000010B504460E4B18784FF47A73BC
:101F3000B3FBF0F30C4A1068B0FBF3F001F042F988
:101F400068B90F2C01D901200AE0002221464FF088
:101F5000FF3001F0D9F8034B5C60002000E0012065
:101F600010BD00BF300100200000002008B5074A66
:101F7000136843F010031360032001F0A7F800205A
:101F8000FFF7D0FFFFF766FB002008BD00200240EE
:101F9000034A1168034B1B780B441360704700BF62
:101FA000E807002030010020014B1868704700BF8F
:101FB000E807002070477047704738B5026893689B
:101FC00003F00303012B01D0002038BD136813F088
:101FD000010F34D0936803F00D03012B09D0036C7B
:101FE00043F010030364436C43F001034364012096
:101FF000EBE70446936843F002039360036803220F
:102000001A60FFF7D1FF054623689B6813F0010FA4
:1020100013D0FFF7C9FF401B0228F5D923689B683E
:1020200013F0010FF0D0236C43F010032364636CB2
:1020300043F0010363640120C7E70020C5E70020E7
:10204000C3E7000038B50268936803F00303012B6F
:102050000DD091681A4B19420FD0036C43F0100356
:102060000364436C43F001034364012038BD1368EB
:1020700013F0010FEDD00020F8E70446936843F019
:1020800001039360FFF790FF054623681B6813F078
:10209000010F13D1FFF788FF401B0228F5D92368F1
:1020A0001B6813F0010FF0D1236C43F0100323647D
:1020B000636C43F0010363640120D7E70020D5E798
:1020C0003F00008008B5406A036C43F0400303649E
:1020D000436C43F004034364FFF76EFF08BD08B58B
:1020E000406AFFF767FF08BD08B5436A1A6C12F033
:1020F000500F03D09B6B1B6B984708BD1A6C42F4C2
:1021000000721A641A68D26812F4406F0DD15A7EB8
:102110005AB91A6C22F480721A641A6C12F4805F35
:1021200003D11A6C42F001021A641846FFF7E6F96F
:10213000E3E7000030B597B000230193002800F0DA
:10214000D28104460368B3F1A04F06D0924A93426D
:1021500003D0F9219148FFF77BFA63684BB1B3F5DF
:10216000803F06D0B3F5003F03D0B3F5403F40F0C9
:102170008880A36833B1082B04D0102B02D0182B11
:1021800040F08480E36813B1202B40F08480236901
:10219000012B00F28580637E012B00F28680E36ACA
:1021A00043B1B3F5806F05D0B3F5006F02D0B3F53E
:1021B000406F7FD1A36A2BB3402B23D0802B21D03B
:1021C000C02B1FD0B3F5807F1CD0B3F5C07F19D0D2
:1021D000B3F5E07F16D0B3F5007F13D0B3F5107FD1
:1021E00010D0B3F5207F0DD0B3F5307F0AD0B3F512
:1021F000507F07D0B3F5607F04D0B3F5707F01D076
:10220000012B5CD194F83030012B5ED86369042B2C
:1022100001D0082B5FD1636B012B62D8237E012B89
:1022200065D8236973B1E369013B0F2B65D894F836
:102230002030012B67D894F820301BB1636A013B32
:10224000072B66D8236C13F0100F40F0AD80236C81
:10225000002B64D0002023689A6812F0805F04D0BD
:102260009B6813F0005F00F0A080236C23F0120342
:1022700043F010032364636C43F0010363640120A3
:1022800093E0FA214548FFF7E3F972E7FB21434861
:10229000FFF7DEF976E7FC214048FFF7D9F976E74A
:1022A000FD213E48FFF7D4F975E7FE213B48FFF7D3
:1022B000CFF974E7FF213948FFF7CAF97AE74FF4FD
:1022C00080713648FFF7C4F99CE740F201113348AA
:1022D000FFF7BEF99AE74FF481713048FFF7B8F97C
:1022E00099E740F203112D48FFF7B2F996E74FF452
:1022F00082712A48FFF7ACF993E74FF484712748BD
:10230000FFF7A6F993E740F209112448FFF7A0F977
:1023100091E74FF486712148FFF79AF992E76364D9
:10232000E364A36484F83C302046FEF7D7FC2368BE
:102330009B6813F0805F01D000208CE72046FFF7F8
:102340003CFE236C13F0100F85D1002883D1236C41
:1023500023F4885323F0020343F00203236422682A
:10236000936823F0405393602268936843F080534E
:1023700093600B4B1B680B4AA2FB03239B0C03EBE4
:1023800083035A00019202E0019B013B0193019BF0
:10239000002BF9D15FE700BF00010050E88A000878
:1023A0000000002083DE1B430020236C13F0100F7D
:1023B00040F09080002840F08D8023689A6812F0E9
:1023C000040240F08780216C21F4817141F0020108
:1023D0002164B3F1A04F54D04FF0A041029199680D
:1023E00001F0030101294FD0029B23B1996801F04C
:1023F000030101294DD03D498B6823F440336568C2
:102400002B438B60617E4B03656B012D01D04FF434
:1024100080521343E2681343A268134394F82020C8
:10242000012A3BD0A26A012A02D0E16A0A4313437F
:102430002268916811F00C0F0CD1D16821F4804111
:1024400021F00201D160217E94F83020520042EA4E
:10245000813213432168CD68254A2A401343CB605B
:102460002369012B2DD02268136B23F00F03136314
:1024700000236364236C23F0030343F0010323640C
:102480002FE01C490291AAE71B6813F0010FB9D194
:10249000AAE71B6813F0010FB4D1ACE731B9626A47
:1024A000013A43EA424343F48033BBE7226C22F013
:1024B000220242F020022264626C42F00102626455
:1024C000B0E721680B6B23F00F03E269013A134375
:1024D0000B63CDE7236C23F0120343F01003236456
:1024E000012017B030BD0120FBE700BF0003005002
:1024F00007C0F0FF0001005010B504460368B3F1B7
:10250000A04F07D0414A934204D040F2DF414048F7
:10251000FFF79EF823689B6813F0040F70D194F8BE
:102520003C30012B6FD0012384F83C302046FFF76C
:1025300089FD034600285FD1226C22F4706222F0EC
:10254000010242F480722264324A926812F01F0F34
:1025500017D02168B1F1A04F13D0226C42F4801241
:1025600022642A4A91421BD14FF0A042D26812F055
:10257000007F15D0226C22F4405242F48052226433
:102580000EE0226C22F4801222642268D26812F0DB
:10259000007F05D0226C22F4405242F48052226423
:1025A000226C12F4805F24D0626C22F00602626416
:1025B000002284F83C2022681C211160154A926890
:1025C00012F01F0F0FD0134A926802F01F02052A63
:1025D00009D0104A926802F01F02092A03D022682B
:1025E000B2F1A04F0DD121688A6842F004028A60DE
:1025F00007E000226264DBE7002284F83C2000E070
:102600000223184610BD0223FBE700BF0001005063
:10261000E88A000800030050F8B504460E46174645
:102620000368B3F1A04F07D0494A934204D040F663
:1026300062114848FFF70CF823689B6813F0040FF9
:1026400040F0818094F83C30012B7ED0012384F847
:102650003C30414B9B6813F01F0F05D0002384F8DA
:102660003C3001252846F8BD2046FFF7EBFC054627
:10267000002864D1236C23F4706323F0010343F436
:1026800080732364344B9B6813F01F0F17D02268AC
:10269000B2F1A04F13D0236C43F4801323642C4B6E
:1026A0009A421BD14FF0A043DB6813F0007F15D096
:1026B000236C23F4405343F4805323640EE0236CD3
:1026C00023F4801323642368DB6813F0007F05D0B4
:1026D000236C23F4405343F480532364236C13F49A
:1026E000805F29D0636C23F006036364002384F8C1
:1026F0003C30A36B194A9A62A36B194ADA62A36B46
:10270000184A1A6323681C221A602268536843F02F
:10271000100353602268D36843F00103D36021683B
:102720003B4632464031A06B00F026FE226893689B
:1027300043F00403936095E700236364D6E7002326
:1027400084F83C308EE702258CE702258AE700BF3B
:1027500000010050E88A000800030050E92000084A
:10276000DF200008C520000810B504460368B3F157
:10277000A04F07D0054A934204D040F608310448E0
:10278000FEF766FF2368186C10BD00BF0001005003
:10279000E88A0008704770477047704710B50446D4
:1027A0000368B3F1A04F07D0A64A934204D040F685
:1027B0004731A548FEF74CFF637E012B35D863698E
:1027C000042B01D0082B36D123681A6812F0040FAD
:1027D00003D05A6812F0040F07D11A6812F0080FDC
:1027E0005ED05A6812F0080F5AD0226C12F0100F07
:1027F00003D1226C42F400722264944A926812F06F
:102800001F0F1ED0914A926802F01F02052A18D0AD
:102810008E4A926802F01F02092A12D0B3F1A04F2B
:102820000FD04FF0A042D1680CE040F64831864806
:10283000FEF70EFFC3E740F649318348FEF708FF75
:10284000C2E7D968DA6812F4406F23D111F4005F4F
:1028500020D11A6812F0080F1CD09A6812F0040FE9
:1028600010D15A6822F00C025A60236C23F4807352
:102870002364236C13F4805F0CD1236C43F00103B9
:10288000236407E0236C43F010032364636C43F07C
:10289000010363642046FEF731FE23680C221A60B0
:1028A00023681A6812F0200F03D05A6812F0200F24
:1028B00007D11A6812F0400F71D05A6812F0400F19
:1028C0006DD0226C42F400522264604A926812F089
:1028D0001F0F12D05D4A926802F01F02052A0CD029
:1028E0005A4A926802F01F02092A06D0B3F1A04F9B
:1028F00003D04FF0A042D16800E0D968DA6C12F042
:10290000C00F46D111F0007F06D0DA6812F4406F94
:102910003FD111F4005F3CD11A6812F0400F38D05B
:102920004A4A926812F01F0F12D0484A926802F089
:102930001F02062A0CD0454A926802F01F02072A9D
:1029400006D0B3F1A04F03D04FF0A042D26800E010
:10295000DA6812F4001F1CD19A6812F0080F10D127
:102960005A6822F060025A60236C23F48053236477
:10297000236C13F4807F0CD1236C43F00103236498
:1029800007E0236C43F010032364636C43F00103FE
:1029900063642046FFF7FEFE236860221A60236806
:1029A0001A6812F0800F03D05B6813F0800F3ED1DD
:1029B00023681A6812F4807F03D05B6813F4807F69
:1029C00046D123681A6812F4007F03D05B6813F4C1
:1029D000007F49D123681A6812F0100F1DD05A6881
:1029E00012F0100F19D0626B012A08D0174A9268B2
:1029F00012F01F0F44D1DB6813F0010F0AD0236CD3
:102A000043F480632364636C43F0020363642046F1
:102A1000FFF7D2FA236810221A6023681A6812F4AA
:102A2000806F03D05A6812F4806F2FD110BD236CD1
:102A300043F4803323642046FFF7BDFA23688022E5
:102A40001A60B5E700010050E88A00080003005052
:102A5000236C43F4003323642046FFF79DFE236874
:102A60004FF480721A60ACE7236C43F48023236434
:102A70002046FFF792FE23684FF400721A60A9E720
:102A80000A4B9B6813F4404FC4D0B8E7226C42F461
:102A900080422264626C42F0080262644FF48062F9
:102AA0001A602046FFF777FEC0E700BF0003005022
:102AB00030B597B005460C46002301930368B3F187
:102AC000A04F07D0B24A934204D041F2B751B14867
:102AD000FEF7BEFD6368013B0F2B73D8A368072B7D
:102AE00076D8E368012B79D82369042B7CD82B682E
:102AF000DA6812F0180F03D16269B2F5805F16D35D
:102B0000DA6802F01802082A74D0DA6802F01802B3
:102B1000102A74D0DB6803F01803182B02D1636904
:102B20003F2B04D941F2BC519A48FEF791FDE3686E
:102B3000012B6ED02368013B112B64D895F83C30F3
:102B4000012B00F0DA81012385F83C302A68936874
:102B500013F0040F40F0C7816368042B63D8116B36
:102B600003EB430358001F23834021EA030321683A
:102B700081400B4313632A68936813F00C0F40F0F5
:102B80009A802368092B7FD9916903EB43031E3B8D
:102B90000720984021EA0001A06800FA03F30B43E4
:102BA000936162692968CB68C3F3C1035B0002FAD1
:102BB00003F32269013A032A00F2BC80DFE802F045
:102BC0007199A4AF41F2B8517248FEF741FD85E713
:102BD00041F2B9516F48FEF73BFD82E741F2BA512D
:102BE0006C48FEF735FD7FE741F2BB516948FEF7BF
:102BF0002FFD7CE76269B2F5806F98D385E7626943
:102C0000FF2A94D986E741F2C4516248FEF720FDBD
:102C100094E72368013B0D2B90D941F2C8515D48E0
:102C2000FEF716FD8AE7092B0ED8516B03EB430321
:102C300058001E381F23834021EA0303216801FA4C
:102C400000F00343536396E70E2B0ED8916B03EB12
:102C5000430358003C381F23834021EA03032168C3
:102C600001FA00F00343936385E7D16B03EB430361
:102C700058005A381F23834021EA0303216801FAD0
:102C800000F00343D36376E7516903EB4303072066
:102C9000984021EA0001A06800FA03F30B43536156
:102CA0007FE70A6E3C481040226843EA826318437B
:102CB00040F0004008662A68936803F00303012B84
:102CC00071D0E368012B74D0D2F8B03020680121B4
:102CD000814023EA0103C2F8B0302368102B00F0D2
:102CE0009180112B00F0AF80122B00F0B2800020F9
:102CF000FEE04A6E28481040226843EA8263184387
:102D000040F000404866D6E78A6E234810402268AB
:102D100043EA8263184340F000408866CBE7C86E00
:102D20001D4A0240206843EA8063134343F0004396
:102D3000CB66C0E70B6E03F0F8432268B3EB826FFB
:102D40001CD02A68536E03F0F8432168B3EB816FFF
:102D500019D02A68936E03F0F8432168B3EB816FB2
:102D60001CD02A68D36E03F0F8432168B3EB816F5F
:102D7000A1D1D36E23F00043D3669CE70B6E23F002
:102D800000430B66DDE7536E23F000435366E0E734
:102D900000010050E88A000800F0FF83936E23F0E2
:102DA00000439366DDE7136813F0010F89D000201C
:102DB0009EE0D2F8B0302068012181400B43C2F878
:102DC000B0302368092B0ED92868826903EB4303CE
:102DD0001B3B0721994022EA0102A16801FA03F393
:102DE0001343836179E728684269013303EB4303A6
:102DF0000721994022EA0102A16801FA03F3134373
:102E000043616AE73E4A926812F4000F7FF469AFAB
:102E10002968B1F1A04F23D04FF0A04202928A68F6
:102E200002F00302012A1ED0029A22B1906800F03B
:102E30000300012821D0102B24D0112B42D0122BBB
:102E40004AD0002054E02E4A926812F0807FDFD0F2
:102E50004AE72B4A926812F4800FD9D0002047E04D
:102E6000284A0292DBE70A6812F0010FDCD02B6CD3
:102E700043F020032B6401203AE0126812F0010FA6
:102E8000F5D1D8E7B1F1A04FD7D11D4A936843F4EB
:102E9000000393601C4B1B68A2F14E62A2F58422D2
:102EA000A2F27D42A2FB03239B0C03EB83035A0097
:102EB000019202E0019B013B0193019B002BF9D1A0
:102EC000002015E0B1F1A04FB9D10D4A936843F04D
:102ED0008073936000200BE0094A936843F48003F9
:102EE0009360002004E02B6C43F020032B6401204E
:102EF000002385F83C3017B030BD0220FBE700BF4F
:102F000000030050000100500000002070B594B094
:102F100004460D460368B3F1A04F04D041F6943146
:102F20006748FEF795FB2B68032B07D9052B05D0C7
:102F3000062B03D0072B01D0092B6DD12B6853B37F
:102F40006B682BB1B3F5004F02D0B3F5404F69D198
:102F5000AB6803B3B3F5807F1DD0B3F5007F1AD003
:102F6000B3F5407F17D0B3F5806F14D0B3F5A06FE1
:102F700011D0B3F5C06F0ED0B3F5E06F0BD0B3F541
:102F8000006F08D0B3F5106F05D0B3F5206F02D0F5
:102F9000B3F5306F4CD12368B3F1A04F4ED04FF052
:102FA000A0420092009A002A00F0868094F83C101B
:102FB000012900F08380012184F83C109B6813F004
:102FC000040F6FD1936813F0040F6BD12B68002BA3
:102FD00043D03C48836823F46043696894F83060C8
:102FE00041EA46310B43836021688B6803F0030399
:102FF000012B26D0936803F00303012B27D031491E
:103000008B6823F4716323F00F032A68A8680243D6
:1030100013438B6000204AE041F695312848FEF7C3
:1030200017FB8BE741F698312548FEF711FB8FE738
:1030300041F699312248FEF70BFBACE7224A009299
:10304000B0E70B6813F0010FD4D000202FE0136815
:1030500013F0010FD3D0002029E01A498B6823F424
:1030600060438B6021688B6803F00303012B0DD054
:10307000936803F00303012B0ED0124A936823F4E4
:10308000716323F00F039360002010E00B6813F0CE
:10309000010FEDD000200AE0136813F0010FECD00F
:1030A000002004E0236C43F020032364012000236C
:1030B00084F83C3014B070BD0120FBE70220F9E732
:1030C000E88A0008000300500001005010B50446D3
:1030D000C31E042B0FD80A4AD36823F4E0631B04F1
:1030E0001B0C240204F4E064234343F0BF6343F465
:1030F0000033D36010BDAC210248FEF7A9FAEAE71D
:1031000000ED00E0248B000870B505460C4616461D
:103110000F2A25D80F2C28D81B4BDB68C3F30223BA
:10312000C3F10702042A28BF0422191D062921D948
:10313000033B4FF0FF3101FA02F224EA02049C4003
:1031400001FA03F326EA03063443002D14DB2401BD
:10315000E4B205F1604505F5614585F8004370BDB1
:10316000C4210A48FEF774FAD4E7C5210748FEF7E0
:103170006FFAD1E70023DCE705F00F052401E4B284
:10318000034B5C55EBE700BF00ED00E0248B00082B
:1031900014ED00E010B5041E0ADB002C07DB04F080
:1031A0001F02640901239340044A42F8243010BDF1
:1031B000D8210348FEF74CFAEFE700BF00E100E03A
:1031C000248B00080138B0F1807F0AD2064B58608A
:1031D000064AF02182F823100020986007221A6026
:1031E00070470120704700BF10E000E000ED00E0F4
:1031F00070B4066CC56B0124B4406C6004686360F5
:103200004368102B05D0036899600368DA6070BCCE
:10321000704703689A600368D960F8E70268054B55
:103220001344054AA2FB03231B099B000364034BC1
:10323000C3637047F8FFFDBFCDCCCCCC000002408B
:10324000002800F0928010B504460368484A934273
:1032500015D01432934212D0143293420FD014324C
:1032600093420CD01432934209D01432934206D0C8
:103270001432934203D094213E48FEF7E9F9636883
:1032800023B1102B02D0B3F5804F4BD1A368402B54
:1032900001D0002B4BD1E368802B01D0002B4BD108
:1032A00023692BB1B3F5807F02D0B3F5007F48D1FD
:1032B00063692BB1B3F5806F02D0B3F5006F45D1D0
:1032C000A3690BB1202B46D1E36943B1B3F5805F0D
:1032D00005D0B3F5005F02D0B3F5405F40D10223C3
:1032E00084F8213021680A6822F47F5222F03002EB
:1032F0006368A0680343E06803432069034360698F
:103300000343A0690343E069034313430B60204672
:10331000FFF784FF0020A063012384F8213084F8A4
:10332000200010BD95211348FEF792F9AEE79621D3
:103330001048FEF78DF9AEE797210E48FEF788F9A1
:10334000AEE798210B48FEF783F9B1E799210948C8
:10335000FEF77EF9B4E79A210648FEF779F9B3E75C
:103360009B210448FEF774F9B9E70120704700BFBC
:1033700008000240608B0008F8B504460E46174668
:103380001D465A1E4FF6FE739A420FD894F820300D
:10339000012B3AD0012384F8203094F82130012BFE
:1033A0000AD0002384F820300220F8BD40F24D11ED
:1033B0001748FEF74DF9E9E7022384F8213000238E
:1033C000A3632268136823F0010313602B463A4677
:1033D00031462046FFF70CFFE36A5BB122681368B1
:1033E00043F00E0313602268136843F00103136077
:1033F0000020DAE72268136843F00A0313602268AA
:10340000136823F004031360EDE70220CDE700BF4B
:10341000608B000890F82130022B06D004238363D0
:10342000002380F82030012070470268136823F0E1
:103430000E0313600268136823F001031360036C2A
:10344000C16B012202FA03F34B6080F821200023B4
:1034500080F820301846704708B590F82130022BCC
:1034600003D004238363012008BD0268136823F09E
:103470000E0313600268136823F001031360036CEA
:10348000C16B012202FA03F34B6080F82120002374
:1034900080F82030436B13B198470020E4E7002008
:1034A000E2E738B5C36B1A6804682568016C042329
:1034B0008B40134213D015F0040F10D0236813F083
:1034C000200F03D1236823F004032360016CC26B37
:1034D00004238B405360C36A03B1984738BD02236D
:1034E0008B4013421AD015F0020F17D0236813F047
:1034F000200F06D1236823F00A032360012380F8FC
:103500002130016CC26B02238B405360002380F892
:103510002030836A002BE1D09847DFE7082303FAC5
:1035200001F11142DAD015F0080FD7D0236823F04B
:103530000E032360026CC16B012303FA02F24A609E
:10354000836380F82130002380F82030036B002B48
:10355000C4D09847C2E700002DE9F04182B0804610
:103560000C46B0F1904F12D09D4B98420FD003F50E
:10357000806398420BD003F58063984207D003F52F
:103580000063984203D0B2219648FEF761F82368A1
:103590009AB212B11B0C1B041BB1B3219148FEF768
:1035A00057F86368012B19D9112B17D0022B15D0AE
:1035B000122B13D0B3F5881F10D0B3F5041F0DD014
:1035C000B3F5441F0AD0B3F5901F07D0B3F5081F19
:1035D00004D0B3F5481F01D0032B01D1002593E09F
:1035E000B4218048FEF734F8F8E7E368012B01D9ED
:1035F000032B17D1D8F80820690003238B4022EA57
:103600000302E3688B401343C8F80830D8F804205D
:1036100022EA07026368C3F30017AF401743C8F8F4
:10362000047080E0C3216F48FEF712F8E2E7D4216E
:103630006C48FEF70DF87FE0B8F1904F12D0684B60
:1036400098450FD003F5806398450BD003F5806350
:10365000984507D003F50063984503D0E2216148FF
:10366000FDF7F6FF23690D2B01D90F2B10D1EA08C6
:10367000083258F8220005F0070399000F238B4009
:1036800020EA030023698B40034348F8223065E0B9
:10369000E3215448FDF7DCFFE9E7032300E00023C2
:1036A0008B4003430232504941F822304F4B1A6895
:1036B000F34303EA0201606810F4803F01D046EA58
:1036C00002014A4A1160526803EA0201606810F47C
:1036D000003F01D046EA0201444A5160926803EA81
:1036E0000201606810F4801F01D046EA02013F4ADF
:1036F0009160D2681340616811F4001F01D046EA5E
:1037000002033A4AD3600135266836FA05F363D0DE
:103710000127AF403E40F6D0636803F00303013B4E
:10372000012B7FF662AF636803F00303032B0FD016
:10373000A368022B3FF67BAFD8F80C206900032367
:103740008B4022EA0302A3688B401343C8F80C3075
:10375000636803F00303022B3FF46EAFD8F8002038
:10376000690003238B4022EA0302636803F003032A
:103770008B401343C8F80030636813F4403FC2D055
:103780001B4B9A6942F001029A619B6903F00103A5
:103790000193019BAA08911C134B53F8210005F0DB
:1037A000030399000F238B4020EA0300B8F1904FE8
:1037B0003FF475AF0A4B98450AD003F580639845EE
:1037C00008D003F5806398453FF467AF052367E7AA
:1037D000012365E7022363E702B0BDE8F08100BF83
:1037E00000040048988B00080000014000040140DC
:1037F0000010024070B5054614460E4621B1012C5A
:1038000008D86CB9AE6270BD4FF4D2710548FDF7AF
:103810001FFFF4E740F2A5110248FDF719FFF0E79A
:10382000AE61F0E7988B000838B505460C4621B923
:103830004FF4DE710548FDF70BFF6B6904EA0302E4
:1038400024EA030444EA0244AC6138BD988B0008C2
:1038500010B40468226822F007028B68134323F037
:103860001803CA681343236003680A685A6103682F
:103870004A689A615DF8044B704770B406684C1C46
:10388000E401355925F0070593682B4323F018030D
:10389000D5682B43335103681468C9010B44C3F83E
:1038A0009440036852681944C1F8982070BC70476E
:1038B00030B404682268D4F8A05322F020024B6987
:1038C000134323F400628B69134323F48062CB69B2
:1038D000134323F0C0620B6A134323F000624B6A68
:1038E000134323F040438A6A43EA820323F00053E0
:1038F0000A6B134325F48035CA6A154323600368B5
:10390000C3F8A05330BC70472DE9F04105684B1C4B
:10391000DB01EC5824F07044EC500768FB5807EBCF
:10392000C114D4F8E8C0D4F8E450D7F8A06323F069
:1039300020045369234323F400649369234323F44D
:103940008064D369234323F0C064136A234323F0C4
:103950000064536A234323F07044936A234323F49F
:103960000033146BB4F1005F35D023F04003D2F87C
:1039700034E04EEA030323F48023146D234323F041
:10398000FC73946C43EA04082CF01F0C946B04F055
:103990001F0444EA0C0424F00044D36B1C43BEF122
:1039A000000F03D125F48075136C1D43D2F844C079
:1039B000BCF5606F12D0BCF5F05F0FD025F4F05568
:1039C0004CEA0505D2F84CC0042910D8DFE801F014
:1039D0000A252B31370043F40033C6E7BEF1400F10
:1039E000F0D1EBE726F40036D26A46EA42064A1CDA
:1039F000D20147F802800368C9010B44C3F8E840CC
:103A000003680B44C3F8E45003681944C1F8D4C0F8
:103A10000368C3F8A063BDE8F08126F48026D26A6B
:103A200046EA8206E3E726F40026D26A46EAC206A0
:103A3000DDE726F48016D26A46EA0216D7E726F4B6
:103A40000016D26A46EA4216D1E7F0B4076807EBDF
:103A5000C114D4F8E450D4F8B860102A07D02FD994
:103A6000802A34D044D8202A31D0402A3ED15C6804
:103A70004FEAC11C6744C7F8BC4002689C686244B6
:103A8000C2F8C0400022FE24944025EA04051C68C8
:103A900094402543DC6894402C431F6907FA02F5E3
:103AA00025435C69944025439C6994402C43082F2E
:103AB00025D0036803EBC111C1F8E440F0BC7047A6
:103AC000022A04D010D9042AD1D0082A0ED15C6869
:103AD0004FEAC11C6744C7F8C44002689C6862444E
:103AE000C2F8C8401022CEE7012AC0D00022CAE79F
:103AF000B2F5807FBBD0B2F5007FF7D1E7E716F0D3
:103B0000022FD6D1DB6903FA02F21443D1E705296B
:103B100033D8DFE801F00B131B232B030268D2F824
:103B2000843343F00103C2F8843370470268D2F84B
:103B3000843343F00203C2F8843370470268D2F83A
:103B4000843343F00403C2F8843370470268D2F828
:103B5000843343F00803C2F8843370470268D2F814
:103B6000843343F01003C2F8843370470268D2F8FC
:103B7000843343F02003C2F884337047002800F0F8
:103B8000A58010B582B004460268514B9A4204D019
:103B900040F226214F48FDF75BFD636823F4403374
:103BA00023F03F03002B58D1022384F8C1300023B7
:103BB000C4F8C430C4F8C830C4F8CC30C4F8D0302D
:103BC000C4F8D430C4F8D830A36813F0010F25D05E
:103BD000236943B1B3F5804F05D0B3F5004F02D050
:103BE000B3F5404F3FD163692BB1B3F5005F02D00D
:103BF000B3F5405F3DD12268354B9A423FD02168F2
:103C00000A6822F44042236903F44043134323F437
:103C10004053626902F4405213430B602046FDF7A3
:103C200099F9A36813F0020F10D0E3682BB1B3F534
:103C3000007F02D0B3F5407F2DD121680A6822F4BD
:103C40004072E36803F4407313430B60012384F86C
:103C5000C130002284F8C02033E040F227211D4803
:103C6000FDF7F6FCA0E740F25D211A48FDF7F0FCF5
:103C7000B9E740F25E211748FDF7EAFCBBE703F520
:103C80001C439A6942F000529A619B6903F0005309
:103C90000193019BB3E740F282210E48FDF7D8FC67
:103CA000CBE7D000811A8B00234400219961D961B0
:103CB000196259629962831A9800204401630132A3
:103CC000D2B2052AEDD9002002B010BD0120704704
:103CD00000740140D48B000838B504460D464B1ED5
:103CE00013F1030F05D8042903D0082901D00C29AA
:103CF00027D194F8C030012B38D0012384F8C0308C
:103D0000022384F8C130B5F1FF3F20D02268D2F8F9
:103D1000CC3343F00203C2F8CC332268D2F8CC3360
:103D200023F00C031D43C2F8CC532268D2F8CC33E5
:103D300043F00103C2F8CC33012384F8C1300020E2
:103D400038BD40F2F9210A48FDF782FCD1E722682C
:103D5000D2F8CC3323F00203C2F8CC332268D2F875
:103D6000CC3343F00103C2F8CC33E5E70220E7E7A8
:103D7000D48B000870B504460D46FEF715F90646CB
:103D80002368D3F8883313F4803F0ED1B5F1FF3F99
:103D9000F6D0FEF709F9801BA84201D8002DEFD11B
:103DA000072384F8C130032005E0012384F8C130E3
:103DB000002084F8C00070BD70B505460C4616465C
:103DC000052908D039B1012905D0022903D00329DA
:103DD00001D004291CD1B368072B1FD8F368082B26
:103DE00002D00BB1102B1FD195F8C130DBB2022BE2
:103DF00025D0022385F8C130052C1BD03246214640
:103E00002846FFF73AFD012385F8C130002070BD38
:103E100040F286310B48FDF71BFCDCE740F28731AE
:103E20000848FDF715FCD9E74FF462710548FDF726
:103E30000FFCD9E731462846FFF70AFDE3E70220E9
:103E4000E5E700BFD48B000838B504460D460529C8
:103E500008D039B1012905D0022903D0032901D0A6
:103E6000042916D194F8C030012B18D0012284F80F
:103E7000C020022384F8C13021680B68094850F83B
:103E8000250003430B6084F8C120002084F8C000A3
:103E900038BD4FF473710448FDF7DAFBE2E7022006
:103EA000F6E700BF788A0008D48B000870B5044696
:103EB00016460D4611B9531E012B12D9012D2DD0D6
:103EC000022D30D0032D33D0042D05D1B6F5807FDF
:103ED00007D0B6F5007F04D040F635011848FDF74D
:103EE000B7FB94F8C030012B27D0012284F8C02002
:103EF000022384F8C1302168D1F894331E43C1F8FD
:103F0000946321680B680F4850F8250003430B6049
:103F100084F8C120002084F8C00070BD042EE0D0D9
:103F2000082ECDD1DDE7102EDBD0202ECAD1D8E768
:103F3000402ED6D0802EC7D1D3E70220EDE700BFB8
:103F4000D48B0008788A000870B5044616460D46E2
:103F500011B9531E012B15D9012D00F08680022DB9
:103F600000F08980032D00F08C80042D05D1B6F57A
:103F7000807F07D0B6F5007F04D040F66701454842
:103F8000FDF766FB94F8C030012B00F0818001231F
:103F900084F8C030022384F8C1302268D2F8983304
:103FA0001E43C2F898633C4B53F8253013F4803F0E
:103FB00004D02268136823F480331360364B53F81F
:103FC000253013F4003F09D02368D3F8942312F06E
:103FD000030F03D11A6822F400321A602E4B53F8F3
:103FE000253013F4802F09D02368D3F8942312F0DE
:103FF0000C0F03D11A6822F480221A60264B53F862
:10400000253013F4002F09D02368D3F8942312F03D
:10401000300F03D11A6822F400221A601E4B53F8A5
:10402000253013F4801F09D02368D3F8942312F0AD
:10403000C00F03D11A6822F480121A60164B53F88D
:10404000253013F4001F09D02368D3F8942312F409
:10405000407F03D11A6822F400121A60012384F809
:10406000C130002084F8C00070BD042E8AD0082E14
:104070007FF475AF86E7102E84D0202E7FF472AFC8
:1040800080E7402E3FF47EAF802E7FF46EAF79E75D
:104090000220E9E7D48B0008788A000870B504464E
:1040A0000D4616464B1E012B03D9042901D00829C1
:1040B0002BD1336873B1B3F5803F0BD0B3F5003F1C
:1040C00008D0B3F5403F05D0B3F5802F02D0B3F54B
:1040D000A02F20D194F8C130DBB2022B61D094F82C
:1040E000C030012B5FD0012384F8C030022384F854
:1040F000C1302268D2F88033013D072D4AD8DFE86D
:1041000005F0102849334949493E41F20D0128483C
:10411000FDF79EFACDE741F20E012548FDF798FA2A
:10412000D8E723F4E023316801F4E0210B43716800
:10413000C2F8BC1394F8C120D2B2072A35D0226845
:10414000C2F88033012384F8C130002084F8C00015
:1041500070BD23F460133168C90001F460110B4392
:104160007168C2F8C013E5E723F0E0733168890194
:1041700001F0E0710B437168C2F8C413DAE723F071
:1041800060633168490201F060610B437168C2F8F5
:10419000C813CFE7072284F8C120002284F8C0208A
:1041A000C8E70220D4E70220D2E70120D0E700BF11
:1041B000D48B000870B505460E461446052909D073
:1041C00041B1012906D0022904D0032902D00429D3
:1041D00040F0DE80636913B1202B40F0DF80A369DB
:1041E0001BB1B3F5006F40F0DF80E3691BB1B3F59D
:1041F000806F40F0DF80236A4BB1B3F1007F06D0BF
:10420000B3F1806F03D0B3F1C06F40F0D980636A1F
:104210001BB1B3F1006F40F0D980E36A1BB1B3F575
:10422000803F40F0D980236B1BB1B3F1005F40F0B9
:10423000D98095F8C130DBB2022B00F0368195F8B9
:10424000C030012B00F03381012385F8C0300223F8
:1042500085F8C130052E00F0CB80A36AC3B1B3F15D
:10426000805F15D0B3F1005F12D0B3F1405F0FD083
:10427000B3F1804F0CD0B3F1A04F09D0B3F1C04FD0
:1042800006D0B3F1E04F03D0B3F1004F40F0D78038
:10429000236823F4FF4323F05F03002B40F0D58015
:1042A000636823F0FF4323F4BE03002B40F0D38068
:1042B000636B13B1402B40F0D480A36B33F01F032A
:1042C00040F0D580E36B1BB1B3F1004F40F0D580D7
:1042D000636B23B9226C5AB1B2F5807F08D0402BB2
:1042E00001D1236C23B141F2CC017248FDF7B0F942
:1042F000636CFBB1B3F5007F1CD0B3F5C06F19D070
:10430000B3F5206F16D0B3F5905F13D0B3F5B05F5F
:1043100010D0B3F5D05F0DD0626B402A05D1B3F554
:10432000606F07D0B3F5F05F04D041F2CE01614871
:10433000FDF78EF9A36C33F0FC7340F0A480E26CBF
:104340005D4B1A4240F0A580236D1BB1B3F5802F61
:1043500040F0A580224631462846FFF7D5FA21686D
:10436000F200921B93002B44196262685A62A268A1
:104370009A62E268DA6222691A6331462846FFF7D8
:10438000C6FB012385F8C130002085F8C00070BD50
:1043900041F2A3014748FDF75BF91BE741F2A60193
:1043A0004448FDF755F91AE741F2A7014148FDF7E6
:1043B0004FF91AE741F2A8013E48FDF749F91AE71B
:1043C00041F2A9013B48FDF743F920E741F2AA0178
:1043D0003848FDF73DF920E741F2AB013548FDF7DC
:1043E00037F920E741F2AC013248FDF731F920E717
:1043F000A36A2BB1B3F1805F02D0B3F1005F0CD19F
:10440000236833F07F030ED1636833F4FE0310D1C9
:1044100021462846FFF74CFAA1E741F2BB012548A7
:10442000FDF716F9ECE741F2BC012248FDF710F95F
:10443000EAE741F2BD011F48FDF70AF9E8E741F25A
:10444000C5011C48FDF704F922E741F2C6011948ED
:10445000FDF7FEF824E741F2C7011648FDF7F8F82A
:1044600026E741F2C8011348FDF7F2F825E741F2CB
:10447000C9011048FDF7ECF824E741F2CA010D48E4
:10448000FDF7E6F824E741F2CF010A48FDF7E0F82E
:1044900055E741F2D0010748FDF7DAF854E741F259
:1044A000D1010448FDF7D4F854E702206FE7022059
:1044B0006DE700BFD48B00080100008070B5054691
:1044C0000E461446042978D82368A3B1B3F5806F4B
:1044D00011D0B3F5006F0ED0B3F5406F0BD0B3F52C
:1044E000805F08D0B3F5A05F05D0B3F5C05F02D000
:1044F000B3F5E05F67D1A36813B1B3F5007F68D16E
:10450000E36813B1B3F5004F69D1236913B1B3F573
:10451000804F6AD1A36913B1B3F1007F6BD1E36916
:1045200013B1B3F1004F6CD1236A13B1B3F1804FD3
:104530006DD195F8C130DBB2022B6ED095F8C0304A
:10454000012B6CD0012185F8C010022385F8C13001
:10455000226802F4E0506368C3F308020243A368D0
:1045600003F400731A43236903F4804343EA02000F
:10457000E36803F40042024360692A4B03EA004304
:104580001A43A36903F000731343226A02F08042C6
:104590001A43E36903F000431A432B6803EBC61682
:1045A000D6F8B800204B03401343C6F8B83085F85E
:1045B000C110002085F8C00070BD41F28C111B486D
:1045C000FDF746F880E741F28D111848FDF740F8F5
:1045D00091E741F28E111548FDF73AF890E741F264
:1045E0008F111248FDF734F88FE741F290110F4810
:1045F000FDF72EF88EE741F291110C48FDF728F8EF
:104600008DE741F292110948FDF722F88CE741F25B
:1046100093110648FDF71CF88BE70220CCE7022037
:10462000CAE700BF0000FF010020003CD48B000857
:10463000F8B504460D4616461F46052908D039B17F
:10464000012905D0022903D0032901D0042920D152
:1046500094F8C130DBB2022B00F0F88094F8C0303F
:10466000012B00F0F580012384F8C030022384F888
:10467000C130052D13D0731E072B00F2E080DFE858
:1046800013F034004700DE008E00DE00DE00DE00A6
:10469000950041F284217048FCF7DAFFD8E7013E2B
:1046A000072E1BD8DFE806F0040E1A121A1A1A1683
:1046B00023683A68DA6194F8C130DBB2072B20D165
:1046C000012024E023683A685A62F4E723683A68D4
:1046D0009A62F0E723683A68DA62ECE7072384F825
:1046E000C130002384F8C030E5E723683A6803EB63
:1046F000C515C5F89C2094F8C130DBB2072B00F03B
:10470000A980012384F8C130002084F8C000F8BDDE
:10471000022E28D0082E26D041F2CC214E48FCF79C
:1047200097FF23683A6803EBC513C3F8A4207B689E
:104730006BB321686B1CDB01CA5822F44052CA508B
:104740002168CA5878680243CA507B68B3F5005F95
:1047500016D0B3F5405FCED12368BA6803EBC5131A
:10476000C3F8A820C7E77B68002BDAD0B3F5805FD9
:10477000D7D0B3F5005FD4D0B3F5405FCCD1D0E74C
:104780002368BA6803EBC513C3F89C20B3E722681B
:104790000135ED01535923F440535351ABE72368DE
:1047A0003A6803EBC515C5F8A820A4E7022E2AD065
:1047B000082E28D041F2F9212748FCF749FF236849
:1047C0003A6803EBC513C3F8AC207B687BB3216860
:1047D0006B1CDB01CA5822F44042CA502168CA58F7
:1047E000786842EA8002CA507B68B3F5005F17D050
:1047F000B3F5405F7FF47FAF2368BA6803EBC5135E
:10480000C3F8A82077E77B68002BD8D0B3F5805F8A
:10481000D5D0B3F5005FD2D0B3F5405FCAD1CEE7B3
:104820002368BA6803EBC513C3F89C2063E72268CA
:104830000135ED01535923F4404353515BE70723FE
:1048400084F8C130002384F8C03054E702205EE7CA
:1048500002205CE701205AE7D48B00082DE9F041E3
:10486000054617461C460E4611B9531E012B12D998
:10487000012E49D0022E4CD0032E4FD0042E05D14C
:10488000B7F5807F07D0B7F5007F04D041F2A331A0
:104890003948FCF7DDFE23680BB1022B43D12369B5
:1048A0000BB1082B45D1E3680BB1042B47D16369E9
:1048B0002BB1102B03D0202B01D0302B45D1A36975
:1048C0000BB1402B47D1E3690BB1802B49D195F84F
:1048D000C130DBB2022B4AD095F8C030012B48D052
:1048E0004FF0010885F8C080022385F8C1302346C7
:1048F0003A4631462846FFF7A8F885F8C1800020DF
:1049000085F8C000BDE8F081042FC4D0082FB1D1D4
:10491000C1E7102FBFD0202FAED1BCE7402FBAD0B7
:10492000802FABD1B7E741F2A4311348FCF790FEDA
:10493000B5E741F2A5311048FCF78AFEB3E741F232
:10494000A6310D48FCF784FEB1E741F2A7310A48D1
:10495000FCF77EFEB3E741F2A8310748FCF778FE8A
:10496000B1E741F2A9310448FCF772FEAFE702203B
:10497000C8E70220C6E700BFD48B0008002800F07B
:104980009C8370B582B00446036813B113F00F0F17
:104990002BD0236813F0010F4FD063682BB1B3F510
:1049A000803F02D0B3F5A02F25D1B44B5B6803F054
:1049B0000C03042B2AD0B14B5B6803F00C03082BCB
:1049C0001FD06368B3F5803F7CD0002B40F0A680F9
:1049D00003F1804303F504331A6822F480321A602D
:1049E0001A6822F480221A6071E040F24B11A44848
:1049F000FCF72EFECDE740F25111A148FCF728FE4E
:104A0000D3E79E4B5B6813F4803FDAD04FF400335A
:104A100093FAA3F3994B19684FF4003393FAA3F375
:104A2000B3FA83F303F01F03012202FA03F30B42EC
:104A300003D06368002B00F04283236813F0020F59
:104A400000F0DA802369012B00F2A08063691F2B3C
:104A500000F2A280894B5B6813F00C0F00F0A88075
:104A6000864B5B6803F00C03082B00F09B802369E6
:104A7000002B00F00981012292FAA2F3B3FA83F32A
:104A800003F1845303F584139B001A60FDF78CFA3D
:104A90000546022393FAA3F3784B1968022393FA8D
:104AA000A3F3B3FA83F303F01F03012202FA03F323
:104AB0000B4240F0D380FDF777FA401B0228E8D97B
:104AC000032003E36D4A136843F4803313606B4A99
:104AD000D36A23F00F03A1680B43D3626368002BF2
:104AE00036D0FDF761FA05464FF4003393FAA3F38D
:104AF000624B19684FF4003393FAA3F3B3FA83F3CC
:104B000003F01F03012202FA03F30B4295D1FDF7D4
:104B10004BFA401B6428E7D90320D7E2B3F5A02F56
:104B200009D0564B1A6822F480321A601A6822F4AF
:104B300080221A60CBE703F18043A3F53C331A6867
:104B400042F480221A601A6842F480321A60BEE78A
:104B5000FDF72AFA05464FF4003393FAA3F3474BC7
:104B600019684FF4003393FAA3F3B3FA83F303F015
:104B70001F03012202FA03F30B423FF45EAFFDF77D
:104B800013FA401B6428E6D903209FE240F2891102
:104B90003B48FCF75DFD59E74FF4C5713848FCF719
:104BA00057FD57E7354B5B6813F4803F7FF45FAFE9
:104BB000022393FAA3F3314B1968022393FAA3F368
:104BC000B3FA83F303F01F03012202FA03F30B424B
:104BD00004D02369934201D0012077E2274803687B
:104BE00023F0F8036169F82292FAA2F2B2FA82F293
:104BF00001FA02F213430360236813F0080F00F078
:104C00009880A369012B66D8A369002B69D0012184
:104C100091FAA1F2B2FA82F21A4B13449B00196086
:104C2000FDF7C2F90546022393FAA3F293FAA3F221
:104C300093FAA3F2114A516A93FAA3F3B3FA83F3F6
:104C400003F01F03012202FA03F30B4271D1FDF7B7
:104C5000ABF9401B0228E6D9032037E20748036876
:104C600023F0F8036169F82292FAA2F2B2FA82F212
:104C700001FA02F213430360BEE700BF00100240D6
:104C8000108C000820819010012393FAA3F3B3FA4B
:104C900083F303F1845303F584139B0000221A600D
:104CA000FDF782F90546022393FAA3F3B94B19687D
:104CB000022393FAA3F3B3FA83F303F01F03012251
:104CC00002FA03F30B4297D0FDF76EF9401B02285E
:104CD000E9D90320FAE14FF4E571AF48FCF7B8FCDD
:104CE00092E7012292FAA2F2B2FA82F2AB4B13449B
:104CF0009B0000221A60FDF757F90546022393FA3C
:104D0000A3F293FAA3F293FAA3F2A24A516A93FA96
:104D1000A3F3B3FA83F303F01F03012202FA03F3B0
:104D20000B4206D0FDF740F9401B0228E6D90320CC
:104D3000CCE1236813F0040F00F0C080E368012B7E
:104D400001D9052B26D1934BDB6913F0805F27D166
:104D5000904BDA6942F08052DA61DB6903F08053EC
:104D60000193019B01258E4B1B6813F4807F19D0A2
:104D7000E368012B2AD0002B34D103F1804303F5E3
:104D800004331A6A22F001021A621A6A22F004023B
:104D90001A6220E04FF4FB717F48FCF759FCD2E720
:104DA0000025E0E77E4A136843F480731360FDF743
:104DB000FBF806467A4B1B6813F4807FD8D1FDF7C9
:104DC000F3F8801B6428F5D903207FE1714A136A48
:104DD00043F001031362E368002B41D0FDF7E4F8D0
:104DE00006462BE0052B09D06A4B1A6A22F0010215
:104DF0001A621A6A22F004021A62ECE7654B1A6A18
:104E000042F004021A621A6A42F001021A62E2E7F0
:104E1000604B196A022393FAA3F3B3FA83F303F006
:104E20001F03012202FA03F3194245D1FDF7BCF832
:104E3000801B41F28833984200F24381022393FAA7
:104E4000A3F293FAA3F3B3FA83F35B0943F00203EB
:104E5000022BDDD0022393FAA3F34E4B596AD9E714
:104E6000FDF7A2F8064615E04A4B196A022393FAA9
:104E7000A3F3B3FA83F303F01F03012202FA03F34F
:104E8000194219D0FDF790F8801B41F288339842FF
:104E900000F21981022393FAA3F293FAA3F3B3FA6F
:104EA00083F35B0943F00203022BDDD0022393FA64
:104EB000A3F3384B596AD9E7002D73D1E369022B6C
:104EC00076D8E369002B00F00081324A526802F084
:104ED0000C02082A00F0DF80022B40F0B080236A29
:104EE00013B1B3F5803F69D1636A4BB3B3F5802F3B
:104EF00026D0B3F5002F23D0B3F5402F20D0B3F543
:104F0000801F1DD0B3F5A01F1AD0B3F5C01F17D056
:104F1000B3F5E01F14D0B3F5001F11D0B3F5101F87
:104F20000ED0B3F5201F0BD0B3F5301F08D0B3F56A
:104F3000401F05D0B3F5501F02D0B3F5601F43D119
:104F40004FF0807393FAA3F3B3FA83F303F184531E
:104F500003F584139B0000221A60FDF725F805462F
:104F60004FF0007393FAA3F30A4B19684FF00073E4
:104F700093FAA3F3B3FA83F303F01F03012202FAB7
:104F800003F3194226D0FDF70FF8401B0228E7D99A
:104F900003209BE000100240108C0008208190103C
:104FA000007000404C4AD36923F08053D36185E7F9
:104FB00040F23A214948FCF74BFB82E740F243219B
:104FC0004648FCF745FB8FE74FF411714348FCF767
:104FD0003FFBB5E740494B6823F47413626A206ACB
:104FE000024313434B604FF0807393FAA3F3B3FA79
:104FF00083F303F1845303F584139B0001221A60A9
:10500000FCF7D2FF04464FF0007393FAA3F3324B40
:1050100019684FF0007393FAA3F3B3FA83F303F024
:105020001F03012202FA03F3194206D1FCF7BCFF69
:10503000001B0228E7D9032048E0002046E04FF09B
:10504000807393FAA3F3B3FA83F303F1845303F564
:1050500084139B0000221A60FCF7A6FF04464FF061
:10506000007393FAA3F31C4B19684FF0007393FA83
:10507000A3F3B3FA83F303F01F03012202FA03F34D
:10508000194206D0FCF790FF001B0228E7D9032045
:105090001CE000201AE0012B1AD00F4B5B6803F4D0
:1050A0008031226A914201D001200FE003F4701395
:1050B000626A93420ED0012008E00120704701206F
:1050C00004E0032002E0032000E0002002B070BDF5
:1050D0000120FBE70020F9E700100240108C0008D7
:1050E00010B4174B5C6804F00C03082B26D104F4B1
:1050F00070124FF4701393FAA3F3B3FA83F322FA06
:1051000003F31049C85C0E4BDB6A03F00F030F2258
:1051100092FAA2F2B2FA82F2D3400B441A7C14F44F
:10512000803F05D1084B03FB00F05DF8044B70474E
:10513000064BB3FBF2F300FB03F0F6E70348F4E79A
:1051400000100240908A000800093D0000127A0019
:10515000002800F01C8170B504460D46036813F06A
:105160000F0F14D0022D18D88B4B1B6803F00703C8
:10517000AB4218D2884A136823F007032B4313600D
:10518000136803F00703AB420DD0012070BD40F25D
:10519000C3218248FCF75CFAE4E74FF431717F48A1
:1051A000FCF756FAE0E7236813F0020F18D0A36863
:1051B0007BB1802B0DD0902B0BD0A02B09D0B02B26
:1051C00007D0C02B05D0D02B03D0E02B01D0F02B83
:1051D0003ED1734A536823F0F003A1680B43536038
:1051E000236813F0010F69D06368022B36D8636817
:1051F000012B39D0022B4CD0022292FAA2F2684A3B
:105200001068022292FAA2F2B2FA82F202F01F02AF
:10521000012101FA02F2104200F0BB8060494A68A5
:1052200022F0030213434B60FCF7BEFE06465C4BC4
:105230005B6803F00C036268B3EB820F3ED0FCF7AF
:10524000B3FE801B41F288339842F0D903209DE7DA
:1052500040F2DB215148FCF7FBF9BAE740F2E221CA
:105260004E48FCF7F5F9C2E74FF4003292FAA2F289
:105270004B4A10684FF4003292FAA2F2B2FA82F26C
:1052800002F01F02012101FA02F20242C6D10120FE
:105290007CE74FF0007292FAA2F2414A10684FF098
:1052A000007292FAA2F2B2FA82F202F01F02012117
:1052B00001FA02F21042B1D1012067E7364B1B68B8
:1052C00003F00703AB420CD9334A136823F00703FA
:1052D0002B431360136803F00703AB4201D0012096
:1052E00054E7236813F0040F14D0E3685BB1B3F5FF
:1052F000806F08D0B3F5A06F05D0B3F5C06F02D0B2
:10530000B3F5E06F37D1264A536823F4E063E168D0
:105310000B435360236813F0080F15D023695BB16A
:10532000B3F5806F08D0B3F5A06F05D0B3F5C06FAB
:1053300002D0B3F5E06F24D1194A536823F46053C7
:10534000216943EAC1035360FFF7CAFE144B5B684F
:1053500003F0F003F02292FAA2F2B2FA82F2D34002
:10536000104AD35CD840104B1860104B1868FCF7FB
:10537000D9FD00200AE740F21E310848FCF768F921
:10538000C1E740F225310548FCF762F9D4E7012076
:1053900070470120FAE600BF00200240108C000890
:1053A00000100240608A0008000000203401002044
:1053B000014B1868704700BF0000002008B5FFF7D8
:1053C000F7FF074B5B6803F4E0634FF4E06292FA87
:1053D000A2F2B2FA82F2D340024AD35CD84008BDAE
:1053E00000100240708A000808B5FFF7E1FF074B84
:1053F0005B6803F460534FF4605292FAA2F2B2FA7F
:1054000082F2D340024AD35CD84008BD001002406B
:10541000708A0008F0B583B004460268A04B9A4237
:1054200000F2D180236813F4803F54D063684BB1FD
:10543000B3F5807F06D0B3F5007F03D0B3F5407F8E
:1054400040F0C680974BDB6913F0805F40F0C58069
:10545000944BDA6942F08052DA61DB6903F08053E1
:105460000193019B0125904B1B6813F4807F00F092
:10547000B6808C4B1B6A13F4407322D0626802F42E
:1054800040729A421DD08748016A21F440764FF459
:10549000803393FAA3F2B2FA82F2844F3A44920034
:1054A0004FF0010CC2F800C093FAA3F3B3FA83F3F0
:1054B0003B449B0000221A60066211F0010F40F08D
:1054C000A380784A136A23F4407361680B43136224
:1054D000002D40F0C580236813F0010F0AD0A368A7
:1054E000032B00F2C2806F4A136B23F00303A16801
:1054F0000B431363236813F0200F0BD0E36813B141
:10550000102B40F0B780674A136B23F01003E1685B
:105510000B431363236813F0800F31D0236943B327
:10552000B3F5807F25D0B3F5887F22D0B3F5907F87
:105530001FD0B3F5987F1CD0B3F5A07F19D0B3F579
:10554000A87F16D0B3F5B07F13D0B3F5B87F10D0D5
:10555000B3F5C07F0DD0B3F5C87F0AD0B3F5D07FC7
:1055600007D0B3F5D87F04D040F25D115048FCF766
:105570006FF84C4AD36A23F4F87321690B43D36262
:10558000236813F4805F0BD0636913B1B3F5807F98
:1055900075D1444A136B23F4807361690B43136321
:1055A000236813F4804F78D0A36913B1B3F5805FFB
:1055B0006BD13C4A136B23F48053A1690B431363F3
:1055C000002003B0F0BD72213948FCF741F829E70B
:1055D00078213748FCF73CF834E7002543E7324AA6
:1055E000136843F480731360FCF7DEFC06462E4B11
:1055F0001B6813F4807F7FF43CAFFCF7D5FC801B65
:105600006428F4D90320DCE7FCF7CEFC064615E05D
:10561000244B196A022393FAA3F3B3FA83F303F03A
:105620001F03012202FA03F30B427FF44AAFFCF797
:10563000BBFC801B41F2883398422CD8022393FA9A
:10564000A3F293FAA3F3B3FA83F35B0943F00203E3
:10565000022BDDD0022393FAA3F3124B596AD9E748
:10566000D36923F08053D36135E7BE211048FBF79F
:10567000EFFF38E7E0210E48FBF7EAFF43E74FF47E
:10568000C7710B48FBF7E4FF83E740F2D1110848EC
:10569000FBF7DEFF8DE7032093E7002091E700BFD3
:1056A000A1500100001002400070004000819010E5
:1056B000488C0008026852E8003F23F0C00342E82B
:1056C00000310029F6D1202383677047026852E831
:1056D000003F23F4907342E800310029F6D10268BC
:1056E00002F1080353E8003F23F00103083242E8C7
:1056F00000310029F3D1036E012B05D02023C367AD
:105700000023036643667047026852E8003F23F0B7
:10571000100342E800310029F6D1EFE710B5846F9D
:10572000202C48D1002948D0002A48D090F8743065
:10573000012B46D013460446012280F87420C16430
:10574000A0F85030A0F852300022C0F8802021226A
:105750008267C26E8AB11C499162C26E1B49D162D6
:10576000C26E1B491163C26E002151630268283268
:10577000C16CC06EFDF700FE98B9236840221A6222
:10578000002384F87430226802F1080353E8003FD4
:1057900043F08003083242E800310029F3D10020B1
:1057A0000AE01023C4F88030002384F874302023EA
:1057B000A367012000E0022010BD0120FCE70120CA
:1057C000FAE70220F8E700BFD55700083D58000867
:1057D0004B58000808B5416A8369202B18D0002374
:1057E000A1F852300A6802F1080353E8003F23F0A1
:1057F0008003083242E800300028F3D10A6852E8FA
:10580000003F43F0400342E800300028F6D108BDD5
:105810000846FCF78DF8FAE708B5026852E8003F41
:1058200023F0400342E800310029F6D120238367AA
:1058300000238366FCF77CF808BD704708B5406A12
:10584000FFF7FBFF08BD7047704738B5446AA26F89
:10585000E56F23689B6813F0800F01D0212A10D0D8
:1058600023689B6813F0400F01D0222D10D0D4F88C
:10587000803043F01003C4F880302046FFF7E4FF87
:1058800038BD0023A4F852302046FFF713FFE7E7A6
:105890000023A4F85A302046FFF718FFE7E708B5C1
:1058A000406A0023A0F85A30A0F85230FFF7CCFF2E
:1058B00008BD704770B504460168CB6908688D68FB
:1058C00040F60F021A400AD113F0200F07D010F053
:1058D000200F04D0636E0BB12046984770BD002A9C
:1058E00000F0968015F0010203D1A74E304200F07F
:1058F0008F8013F0010F09D010F4807F06D00125AE
:105900000D62D4F880102943C4F8801013F0020F00
:1059100009D042B1216802250D62D4F8801041F00F
:105920000401C4F8801013F0040F09D042B12168BB
:1059300004250D62D4F8801041F00201C4F88010F3
:1059400013F0080F0BD010F0200F00D13AB12268ED
:1059500008211162D4F880200A43C4F8802013F48F
:10596000006F0CD010F0806F09D022684FF40061F6
:105970001162D4F8802042F02002C4F88020D4F8CC
:105980008020002AAAD013F0200F06D010F0200F9C
:1059900003D0636E0BB120469847D4F8802023686B
:1059A0009B6813F0400F02D112F0280F29D0204637
:1059B000FFF78CFE23689B6813F0400F1DD0226810
:1059C00002F1080353E8003F23F04003083242E8A5
:1059D00000310029F3D1236F5BB16C4A5A63206F09
:1059E000FDF73AFD00283FF479AF206F436B9847ED
:1059F00074E72046FFF728FF70E72046FFF724FFF3
:105A00006CE72046FFF720FF0023C4F8803065E7ED
:105A1000226E012A15D013F4801F03D015F4800FD5
:105A200040F09E8013F0800F00F0A18010F0800FF6
:105A300000F09D80A36E002B3FF450AF20469847A6
:105A40004CE713F0100FE6D010F0100FE3D0102346
:105A50000B6223689B6813F0400F4BD0226F1368D2
:105A60005B689BB2002B3FF439AFB4F858109942F1
:105A70007FF634AFA4F85A309369202B30D02268D7
:105A800052E8003F23F4807342E800310029F6D148
:105A9000226802F1080353E8003F23F001030832B3
:105AA00042E800310029F3D1226802F1080353E8EB
:105AB000003F23F04003083242E800310029F3D1CF
:105AC0002023E36700232366226852E8003F23F087
:105AD000100342E800310029F6D1206FFDF79AFC4F
