:020000040800F2
:10000000003000202D670008511800085318000820
:10001000551800085718000859180008000000007B
:100020000000000000000000000000005B18000855
:100030005D180008000000005F1800086118000843
:100040007D6700087D6700087D6700087D67000800
:100050007D6700087D6700087D6700087D670008F0
:100060007D6700087D6700087D6700086918000843
:100070007D6700087D6700087D6700087D670008D0
:100080007918000889180008991800087D67000889
:100090007D6700087D6700087D6700087D670008B0
:1000A0007D6700087D6700087D6700087D670008A0
:1000B0007D6700087D670008000000007D6700087C
:1000C0007D67000800000000000000007D67000858
:1000D000000000007D670008B11800087D67000877
:1000E0007D6700087D670008000000000000000038
:1000F0000000000000000000000000000000000000
:1001000000000000000000000000000000000000EF
:1001100000000000000000007D6700087D67000807
:1001200000000000000000000000000000000000CF
:1001300000000000000000000000000000000000BF
:100140007D6700087D670008000000007D670008EB
:100150007D6700087D6700087D6700087D670008EF
:100160007D6700087D6700080000000000000000B7
:10017000000000000000000000000000000000007F
:08018000000000007D6700088B
:1001900010B5054C237833B9044B13B10448AFF3C1
:1001A00000800123237010BD080300200000000020
:1001B00038A3000808B5034B1BB103490348AFF34C
:1001C000008008BD000000000C03002038A30008D8
:1001D00081F0004102E000BF83F0004330B54FEAF8
:1001E00041044FEA430594EA050F08BF90EA020F65
:1001F0001FBF54EA000C55EA020C7FEA645C7FEAF8
:10020000655C00F0E2804FEA5454D4EB5555B8BF1A
:100210006D420CDD2C4480EA020281EA030382EA8B
:10022000000083EA010180EA020281EA0303362D1D
:1002300088BF30BD11F0004F4FEA01314FF4801CF0
:100240004CEA113102D0404261EB410113F0004F02
:100250004FEA03334CEA133302D0524263EB4303B9
:1002600094EA050F00F0A780A4F10104D5F1200E57
:100270000DDB02FA0EFC22FA05F2801841F10001B2
:1002800003FA0EF2801843FA05F359410EE0A5F186
:1002900020050EF1200E012A03FA0EFC28BF4CF0B7
:1002A000020C43FA05F3C01851EBE37101F000456D
:1002B00007D54FF0000EDCF1000C7EEB00006EEB7A
:1002C0000101B1F5801F1BD3B1F5001F0CD3490804
:1002D0005FEA30004FEA3C0C04F101044FEA44525B
:1002E00012F5800F80F09A80BCF1004F08BF5FEAE2
:1002F000500C50F1000041EB045141EA050130BDC2
:100300005FEA4C0C404141EB010111F4801FA4F164
:100310000104E9D191F0000F04BF01460020B1FAB9
:1003200081F308BF2033A3F10B03B3F120020CDAF1
:100330000C3208DD02F1140CC2F10C0201FA0CF0CF
:1003400021FA02F10CE002F11402D8BFC2F1200C34
:1003500001FA02F120FA0CFCDCBF41EA0C019040EA
:10036000E41AA2BF01EB0451294330BD6FEA040433
:100370001F3C1CDA0C340EDC04F11404C4F120021E
:1003800020FA04F001FA02F340EA030021FA04F330
:1003900045EA030130BDC4F10C04C4F1200220FA87
:1003A00002F001FA04F340EA0300294630BD21FAC5
:1003B00004F0294630BD94F0000F83F4801306BF8B
:1003C00081F480110134013D4EE77FEA645C18BF7F
:1003D0007FEA655C29D094EA050F08BF90EA020F16
:1003E00005D054EA000C04BF1946104630BD91EA0E
:1003F000030F1EBF0021002030BD5FEA545C05D111
:100400004000494128BF41F0004130BD14F580044F
:100410003CBF01F5801130BD01F0004545F0FE41C3
:1004200041F470014FF0000030BD7FEA645C1ABFF8
:10043000194610467FEA655C1CBF0B46024650EA2F
:10044000013406BF52EA033591EA030F41F400215B
:1004500030BD00BF90F0000F04BF0021704730B5E1
:100460004FF4806404F132044FF000054FF00001B6
:1004700050E700BF90F0000F04BF0021704730B577
:100480004FF4806404F1320410F0004548BF40424C
:100490004FF000013EE700BF42004FEAE2014FEAA1
:1004A00031014FEA02701FBF12F07F4393F07F4F7C
:1004B00081F06051704732F07F4208BF704793F07F
:1004C0007F4F04BF41F40021704730B54FF4607492
:1004D00001F0004521F000411CE700BF50EA010295
:1004E00008BF704730B54FF000050AE050EA01023E
:1004F00008BF704730B511F0004502D5404261EBAE
:1005000041014FF4806404F132045FEA915C3FF4EE
:10051000D8AE4FF003025FEADC0C18BF03325FEA8B
:10052000DC0C18BF033202EBDC02C2F1200300FA3C
:1005300003FC20FA02F001FA03FE40EA0E0021FA61
:1005400002F11444BDE600BF70B54FF0FF0C4CF44F
:10055000E06C1CEA11541DBF1CEA135594EA0C0F01
:1005600095EA0C0F00F0DEF82C4481EA030621EA3C
:100570004C5123EA4C5350EA013518BF52EA033577
:1005800041F4801143F4801338D0A0FB02CE4FF029
:100590000005E1FB02E506F00042E0FB03E54FF059
:1005A0000006E1FB03569CF0000F18BF4EF0010E51
:1005B000A4F1FF04B6F5007F64F5407404D25FEA4D
:1005C0004E0E6D4146EB060642EAC62141EA555100
:1005D0004FEAC52040EA5E504FEACE2EB4F1FD0C42
:1005E00088BFBCF5E06F1ED8BEF1004F08BF5FEAC0
:1005F000500E50F1000041EB045170BD06F0004672
:1006000046EA010140EA020081EA0301B4EB5C041E
:10061000C2BFD4EB0C0541EA045170BD41F4801116
:100620004FF0000E013C00F3AB8014F1360FDEBF3B
:10063000002001F0004170BDC4F10004203C35DA17
:100640000C341BDC04F11404C4F1200500FA05F39A
:1006500020FA04F001FA05F240EA020001F000423B
:1006600021F0004110EBD37021FA04F642EB0601B1
:100670005EEA430E08BF20EAD37070BDC4F10C04DB
:10068000C4F1200500FA04F320FA05F001FA04F29F
:1006900040EA020001F0004110EBD37041F100018B
:1006A0005EEA430E08BF20EAD37070BDC4F1200596
:1006B00000FA05F24EEA020E20FA04F301FA05F2FE
:1006C00043EA020321FA04F001F0004121FA04F2A6
:1006D00020EA020000EBD3705EEA430E08BF20EA76
:1006E000D37070BD94F0000F0FD101F000464000B0
:1006F00041EB010111F4801F08BF013CF7D041EA32
:10070000060195F0000F18BF704703F00046520035
:1007100043EB030313F4801F08BF013DF7D043EA06
:100720000603704794EA0C0F0CEA135518BF95EABC
:100730000C0F0CD050EA410618BF52EA4306D1D143
:1007400081EA030101F000414FF0000070BD50EA62
:10075000410606BF1046194652EA430619D094EAEC
:100760000C0F02D150EA013613D195EA0C0F05D1D6
:1007700052EA03361CBF104619460AD181EA03012A
:1007800001F0004141F0FE4141F470014FF00000E2
:1007900070BD41F0FE4141F4780170BD70B54FF07D
:1007A000FF0C4CF4E06C1CEA11541DBF1CEA1355FD
:1007B00094EA0C0F95EA0C0F00F0A7F8A4EB0504DF
:1007C00081EA030E52EA03354FEA013100F08880D6
:1007D0004FEA03334FF0805545EA131343EA12639F
:1007E0004FEA022245EA111545EA10654FEA002654
:1007F0000EF000419D4208BF964244F1FD0404F50D
:10080000407402D25B084FEA3202B61A65EB030568
:100810005B084FEA32024FF480104FF4002CB6EB25
:10082000020E75EB030E22BFB61A754640EA0C00A5
:100830005B084FEA3202B6EB020E75EB030E22BFE5
:10084000B61A754640EA5C005B084FEA3202B6EB26
:10085000020E75EB030E22BFB61A754640EA9C00E5
:100860005B084FEA3202B6EB020E75EB030E22BFB5
:10087000B61A754640EADC0055EA060E18D04FEA73
:10088000051545EA16754FEA06164FEAC30343EA13
:1008900052734FEAC2025FEA1C1CC0D111F4801FE0
:1008A0000BD141EA00014FF000004FF0004CB6E7D9
:1008B00011F4801F04BF01430020B4F1FD0C88BF78
:1008C000BCF5E06F3FF6AFAEB5EB030C04BFB6EB83
:1008D000020C5FEA500C50F1000041EB045170BD76
:1008E0000EF0004E4EEA113114EB5C04C2BFD4EBA3
:1008F0000C0541EA045170BD41F480114FF0000E27
:10090000013C90E645EA060E8DE60CEA135594EAA2
:100910000C0F08BF95EA0C0F3FF43BAF94EA0C0FA5
:100920000AD150EA01347FF434AF95EA0C0F7FF41A
:1009300025AF104619462CE795EA0C0F06D152EA6E
:1009400003353FF4FDAE1046194622E750EA410652
:1009500018BF52EA43067FF4C5AE50EA41047FF463
:100960000DAF52EA43057FF4EBAE12E74FEA4102C6
:10097000B2F1E04324BFB3F5001CDCF1FE5C0DD9FD
:1009800001F0004C4FEAC0024CEA5070B2F1004F47
:1009900040EB830008BF20F00100704711F0804F4A
:1009A00021D113F13872BCBF01F00040704741F40F
:1009B00080114FEA5252C2F11802C2F1200C10FA13
:1009C0000CF320FA02F018BF40F001004FEAC123F7
:1009D0004FEAD32303FA0CFC40EA0C0023FA02F39B
:1009E0004FEA4303CCE77FEA625307D150EA013371
:1009F0001EBF4FF0FE4040F44000704701F0004041
:100A000040F0FE4040F40000704700BF034613F87A
:100A1000012B002AFBD1181A013870470000000092
:100A200001F0FF01102A2BDB10F0070F08D010F89F
:100A3000013B013A8B422DD010F0070F42B3F6D1A3
:100A4000F0B441EA012141EA014122F007047FF0BC
:100A500000070023F0E80256083C85EA010586EA13
:100A6000010685FA47F5A3FA87F586FA47F6A5FA4F
:100A700087F68EB9EED1F0BC01F0FF0102F007025B
:100A800032B110F8013B013A83EA010313B1F8D106
:100A90000020704701387047002D06BF35460338E7
:100AA000073815F0010F07D1013015F4807F02BF20
:100AB000013015F4C03F0130F0BC0138704700BF71
:100AC0004FF0FF3C06E000BF4FF0010C02E000BF1A
:100AD0004FF0010C4DF804CD4FEA410C7FEA6C5CFD
:100AE0004FEA430C18BF7FEA6C5C1BD001B050EAA0
:100AF000410C0CBF52EA430C91EA030F02BF90EA8B
:100B0000020F0020704710F1000F91EA030F58BF49
:100B1000994208BF90422CBFD8176FEAE37040F0AB
:100B2000010070474FEA410C7FEA6C5C02D150EA49
:100B3000013C07D14FEA430C7FEA6C5CD6D152EA04
:100B4000033CD3D05DF8040B704700BF84461046C9
:100B500062468C461946634600E000BF01B5FFF7C8
:100B6000B7FF002848BF10F1000F01BD4DF808ED98
:100B7000FFF7F4FF0CBF012000205DF808FB00BF69
:100B80004DF808EDFFF7EAFF34BF012000205DF8C3
:100B900008FB00BF4DF808EDFFF7E0FF94BF012010
:100BA00000205DF808FB00BF4DF808EDFFF7CEFF11
:100BB00094BF012000205DF808FB00BF4DF808ED50
:100BC000FFF7C4FF34BF012000205DF808FB00BF21
:100BD0004FEA410C7FEA6C5C02D150EA013C0AD139
:100BE0004FEA430C7FEA6C5C02D152EA033C02D12B
:100BF0004FF0000070474FF0010070474FEA41028C
:100C000012F5001215D211D56FF47873B3EB62525E
:100C100012D94FEAC12343F0004343EA505311F085
:100C2000004F23FA02F018BF404270474FF0000017
:100C3000704750EA013005D111F0004008BF6FF055
:100C4000004070474FF00000704700BF4A0011D2CB
:100C500012F5001211D20DD56FF47873B3EB625216
:100C60000ED44FEAC12343F0004343EA505323FA22
:100C700002F070474FF00000704750EA013002D197
:100C80004FF0FF3070474FF00000704700B58BB059
:100C9000002307930893099301930293039304930A
:100CA0000593069325484FF0A0420260436083609D
:100CB00001220261437680F820304FF48061C162E6
:100CC0004FF4E0718162C3600221C16180F830207D
:100CD000082242610376436301F032FC08BB0AA993
:100CE000002341F80C3D154802F016FBE0B9012342
:100CF0000193029300230493042203920593069325
:100D00000DEB02010D4802F0D9F880B902230193DE
:100D1000029301A9094802F0D1F858B90BB05DF867
:100D200004FB00F0C9FCDAE700F0C6FCDFE700F0E6
:100D3000C3FCEBE700F0C0FCF0E700BFB00300200D
:100D400000B587B0002300930193029303930493AB
:100D500005931948194A0260436083600361437632
:100D600080F820304FF48062C2624FF4E0728262F9
:100D7000C3600122C26180F83030042242610376F0
:100D8000436301F0DDFB80B901230093019300234D
:100D9000039304220292049305936946064802F0E5
:100DA0008DF828B907B05DF804FB00F085FCEBE78F
:100DB00000F082FCF6E700BF600300200001005055
:100DC00010B58AB0002305930693079308930993FF
:100DD0000368B3F1A04F04D03C4A934248D00AB014
:100DE00010BD04463A4A136801331360012B31D019
:100DF000384B5A6942F400325A615B6903F400339C
:100E00000293029B03230593069305A94FF090409C
:100E100002F0A8FD3048314B03600023436083603B
:100E20008022C2604FF4807202614FF4806242619E
:100E300020228261C36102F009FCB0B9264BA36392
:100E40005C6200221146122002F064FB122002F0C4
:100E5000A7FBC4E71F4B5A6942F080525A615B6995
:100E600003F080530193019BC2E700F025FCE5E706
:100E7000174A136801331360012B1BD0154B5A69B5
:100E800042F400325A615B6903F400330493049B1B
:100E9000102305930323069305A94FF0904002F019
:100EA00061FD00221146122002F034FB122002F0F4
:100EB00077FB94E7074B5A6942F080525A615B69AD
:100EC00003F080530393039BD8E700BF0001005059
:100ED000240300200010024000040020080002400B
:100EE00000B583B0124B5A6942F001025A615B6946
:100EF00003F001030193019B002211460B2002F035
:100F000009FB0B2002F04CFB00221146102002F0DE
:100F100001FB102002F044FB00221146112002F0D8
:100F2000F9FA112002F03CFB03B05DF804FB00BFAE
:100F30000010024070B58AB000240594069407940E
:100F400008940994384B5A6942F400225A615A694C
:100F500002F400220092009A5A6942F480025A6117
:100F60005A6902F480020192019A5A6942F40032ED
:100F70005A615A6902F400320292029A5A6942F4A2
:100F800080225A615A6902F480220392039A5A69B4
:100F900042F480125A615B6903F480130493049B4A
:100FA000224620214FF0904002F02AFE4FF40053D9
:100FB00005934FF40413069307941C4E05A930467D
:100FC00002F0D0FC41F6FF430593032506950794F4
:100FD00005A9304602F0C6FC2023059301230693A1
:100FE0000794089405A94FF0904002F0BBFC49F229
:100FF000C00305930695079405A94FF0904002F0B1
:10100000B1FC40F6F77305930695079405A90848C7
:1010100002F0A8FC042305930695079405A905484A
:1010200002F0A0FC0AB070BD0010024000080048A9
:1010300000040048000C00480268094B9A4200D0A6
:10104000704782B003F51C439A6942F000529A61DE
:101050009B6903F000530193019B02B0704700BFEE
:1010600000740140F0B589B0002303930493059305
:10107000069307930268244B9A4201D009B0F0BD51
:1010800003F51C435A6942F480225A615A6902F4FA
:1010900080220092009A5A6942F400225A615A69E9
:1010A00002F400220192019A5A6942F400325A6114
:1010B0005B6903F400330293029B4FF47043039384
:1010C00002250495032406940D26079603A90F48CC
:1010D00002F048FC4FF440730393049500270597F2
:1010E0000694079403A90A4802F03CFC4FF470638D
:1010F0000393049505970694079603A94FF0904033
:1011000002F030FCBAE700BF007401400004004860
:101110000008004810B5B0B000242E942F942A94F3
:101120002B942C942D94542221460DEB020005F0B3
:1011300053FB129413941494242221460DEB0200C5
:1011400005F04AFB2022214601A805F045FBB348E3
:10115000B34B03604460846002F002FF002840F05B
:10116000C7810821AD4802F0A9FF002840F0C381E3
:101170000A21AA4802F0F0FF002840F0BF810023B6
:101180002E9302232F932EAA0121A44803F078F96D
:10119000002840F0B6814FF6FF132A9300232B93CB
:1011A0002C9308232D932AAA05219C4802F0F6FFD0
:1011B000002840F0A98100231593169317931893E4
:1011C000012219921A931B931C931D931E931F9334
:1011D00020934FF00053219315AA05218F4803F067
:1011E000DBF9002840F0938130AB47F6FF4243F82B
:1011F000782D01220521894803F00CFC002840F0DD
:10120000898130AB40F2471243F8782D0222052144
:10121000824803F0FFFB002840F07F8130AB47F6A7
:10122000466243F8782D042205217C4803F0F2FB46
:10123000002840F075812AAA0021784802F0AEFF0C
:10124000002840F070810021159116914FF0006345
:101250001E932291239124914FF48073259326911C
:10126000279110232893299115AA6C4803F094F92B
:10127000002840F05B81202328934FF4802329939A
:1012800015AA0121654803F087F9002840F0518133
:10129000102328930023299315AA02215F4803F005
:1012A0007BF9002840F048810023269310232893DF
:1012B00015AA0321594803F06FF9002840F03F8137
:1012C000002315931023289315AA0421534803F0F3
:1012D00063F9002840F0368130AB40F2471243F802
:1012E000782D012200214D4803F094FB002840F0A6
:1012F0002C814FF4406309930A230A9300210B9138
:101300000C910D910E930F911091119109AA4348E0
:1013100003F0C6FA002840F01B8109AA01213F48CA
:1013200003F0BEFA002840F0168109AA02213B48CA
:1013300003F0B6FA002840F0118109AA03213748CA
:1013400003F0AEFA002840F00C8109AA04213348CA
:1013500003F0A6FA002840F00781002101918023C4
:101360000293082303930491059106910791089134
:1013700001AB0122294803F063FC002840F0F7800C
:101380004FF48073029301AB04220121234803F040
:1013900057FC002840F0EE808023029301AB10221E
:1013A00002211E4803F04CFC002840F0E6804FF478
:1013B0008073029301AB40220321184803F040FCE4
:1013C000002840F0DD808023029301AB4FF480724F
:1013D0000421124803F034FC002840F0D48000219E
:1013E0000291039101AB02220C4803F029FC002872
:1013F00040F0CC8001AB08220121084803F020FC1A
:10140000002840F0C68001AB20220221034803F0EF
:1014100017FC002840F0C08004E000BF4404002016
:101420000074014001AB802203216C4803F008FCEA
:10143000002840F0B48001AB4FF4007204216748EB
:1014400003F0FEFB002840F0AD802AAA012163488A
:1014500002F0A4FE002840F0A88012AB0122114641
:101460005E4803F0D7FA002840F0A28010232D93A5
:101470002AAA0221594802F091FE002840F09B80E0
:1014800030AB40F2471243F8782D01220221534835
:1014900003F0C0FA002840F091802AAA03214F48A7
:1014A00002F07CFE002840F08C8012AB0122032168
:1014B0004A4803F0AFFA002840F0868008232D93B5
:1014C0002AAA0421454802F069FE00287FD130ABEA
:1014D00040F2471243F8782D012204213F4803F0DF
:1014E00099FA002876D13D48FFF7BCFD30B010BD19
:1014F00000F0E2F835E600F0DFF839E600F0DCF85D
:101500003DE600F0D9F846E600F0D6F853E600F0E4
:10151000D3F869E600F0D0F873E600F0CDF87DE688
:1015200000F0CAF887E600F0C7F88CE600F0C4F8CF
:10153000A1E600F0C1F8ABE600F0BEF8B4E600F0BA
:10154000BBF8BDE600F0B8F8C6E600F0B5F8D0E6A6
:1015500000F0B2F8E1E600F0AFF8E6E600F0ACF833
:10156000EBE600F0A9F8F0E600F0A6F8F5E600F0EA
:10157000A3F805E700F0A0F80EE700F09DF816E7E5
:1015800000F09AF81FE700F097F828E700F094F8C9
:1015900030E700F091F836E700F08EF842E700F00F
:1015A0008BF848E700F088F84FE700F085F854E73B
:1015B00000F082F85AE700F07FF861E700F07CF86D
:1015C0006BE700F079F870E700F076F876E700F066
:1015D00073F87CE700F070F885E700BF4404002052
:1015E00038B52DED028B2A4C94ED007A294A1388E8
:1015F0009BB207EE903A284BD3ED006AF8EEE77AFB
:1016000067EEA67A77EE277A244DC5ED007A94ED41
:10161000017A53889BB207EE903A214BD3ED006AD2
:10162000F8EEE77A67EEA67A77EE277AC5ED017ACB
:1016300094ED028A1B4801F09DFA1B4B93ED007A52
:1016400007EE900AF8EE677A67EE877A38EE278A17
:1016500085ED028A237B13B9BDEC028B38BD95ED75
:10166000000A124800F039FE782000F0DFFD95ED09
:10167000010A0F4800F031FE792000F0D7FD95ED0A
:10168000020A0C4800F029FE7A2000F0CFFDE3E7C3
:1016900028030020440500204005002020050020EC
:1016A0002C0500206003002038050020C40700201E
:1016B000F00700209807002072B6FEE700B597B04B
:1016C000202200210DA805F087F800230793089336
:1016D00009930A930B93009301930293039304934A
:1016E0000593069302230C9301221092102211926B
:1016F00013934FF4601315930CA803F031FBE8B972
:101700000F23079302210891002309934FF480626D
:101710000A920B9307A803F00DFF88B94FF4814399
:1017200000934FF4807304934FF4805306936846FC
:1017300004F062F830B917B05DF804FBFFF7BCFFA6
:10174000FFF7BAFFFFF7B8FF08B500F015FEFFF787
:10175000B5FFFFF7EFFBFFF7C3FBFFF797FA00F0CA
:1017600009F9FFF7EDFAFFF7D5FC214A214B136089
:10177000214D2B60214C23601068FEF78DFE1AA3CB
:10178000D3E90023FEF7E0FEFFF7F0F81C4B1860EA
:101790002868FEF781FE14A3D3E90023FEF7D4FEE8
:1017A000FFF7E4F8174B18602068FEF775FE0EA3EC
:1017B000D3E90023FEF7C8FEFFF7D8F8124B1860F4
:1017C0000521124802F032FD02221149114801F0B0
:1017D00029F9114801F096F800F070FA00F026FBA4
:1017E00000F086FBFAE700BF6666666666664A3FFB
:1017F00030050020D87C63373C05002034050020EC
:10180000400500202C05002038050020440400205D
:1018100044050020B0030020600300207047000052
:1018200082B00A4B9A6942F001029A619A6902F009
:1018300001020092009ADA6942F08052DA61DB69B3
:1018400003F080530193019B02B0704700100240E7
:10185000FEE7FEE7FEE7FEE7FEE7704770477047EA
:1018600008B500F09BFD08BD08B5024802F01FF85E
:1018700008BD00BF0004002008B5024802F017F8B8
:1018800008BD00BF4C05002008B5024802F00FF863
:1018900008BD00BF9005002008B5034801F084F999
:1018A000024801F081F908BDB00300206003002068
:1018B00010B5074C204604F0EFF92368DA6912F0FE
:1018C000100F00D110BD10221A6200F0C9F9F9E71B
:1018D000D406002070B50D461646002404E000F042
:1018E0000BF9287001340135B442F8DB304670BD85
:1018F00070B51646002405E04D1C087800F0E6F8A7
:1019000001342946B442F7DB304670BD08B50346C2
:101910000B4A126842B10A4A106803446A4693426D
:1019200006D8074A136008BD054A06491160F2E768
:1019300004F028FF0C2303604FF0FF30F3E700BFF3
:1019400038030020280800204FF0FF3070474FF484
:1019500000534B6000207047012070470020704703
:10196000034AD2F8883043F47003C2F888307047D5
:1019700000ED00E008B50B480B4B03604FF4E1337A
:10198000436000238360C36003610C224261836172
:10199000C3610362436204F0EBFD00B908BDFFF7C9
:1019A0008BFEFBE7D40600200044004010B588B051
:1019B00000230393049305930693079302682D4B2A
:1019C0009A4201D008B010BD044603F5E633DA6947
:1019D00042F40032DA61DA6902F400320192019ACB
:1019E0005A6942F400325A615B6903F4003302938E
:1019F000029B0C23039302230493032306930723E0
:101A0000079303A94FF0904001F0ACFF1A481B4B1D
:101A100003600023436083608022C26003614361EE
:101A20008361C36101F012FEF0B9134B23675C625E
:101A30001348144B0360102343600023836080220B
:101A4000C260036143618361C36101F0FFFD70B94E
:101A50000B4BE3665C6200221146262001F05AFD22
:101A6000262001F09DFDADE7FFF726FEDDE7FFF73D
:101A700023FEEDE7004400404C0500206C000240CE
:101A8000900500208000024008B50F4BDA689B6883
:101A90009A420DD00C4B19688854DA680132DA602A
:101AA0009969013199615B689A4208D0002008BDAC
:101AB000054B9B69002BEDD0FFF7FEFDF6E7024BCF
:101AC0000022DA60F2E700BF04000020094B93F81F
:101AD00020300BB10120704710B5064C012384F86B
:101AE0002030C0B2FFF7D0FF002384F8203001205F
:101AF00010BD00BF04000020002070470268084BA2
:101B00009A4200D07047074B93F82430012BF9D14B
:101B1000044B5A699A60002283F82020F2E700BF44
:101B20000044004004000020154B9B6F202B00D088
:101B3000704710B5012380F8203084688269A118AD
:101B400041614368994213D802610ED0002383613A
:101B500001688468C369026912FB03F292B203FB55
:101B60000411074803F0CCFF10BD00234361EDE7EB
:101B70001B1B0361D31A836100234361E8E700BFA5
:101B8000D4060020124BDB6F202B02D0104BD86FF5
:101B9000704770B50F4D402632460021284604F0AC
:101BA0001BFE0D4B01221A70094C2268136843F08A
:101BB0001003136032462946204604F08DFD236F42
:101BC0001A68136823F004031360014BD86F70BDCB
:101BD000D4060020580700204003002070B5164BA3
:101BE0005B68C02B24D8144D00216960134C4FF45E
:101BF0008072204604F0F0FD6868114B204403F128
:101C000040021E685D689C68D96806604560846013
:101C1000C160103310309342F3D1074C63684033F6
:101C2000636000232370FFF7ADFF0123237202E0FE
:101C3000044805F035FA70BD40030020D4050020AB
:101C400058070020A0A3000808B50268034B9A4279
:101C500000D008BDFFF7C2FFFBE700BF0044004013
:101C600008B5144B1B685B683F2B05D8124BDB6F24
:101C7000222B02D0FFF7B2FF08BD0F4B1B689A68FA
:101C800012F0400FF6D09A6822F040029A600A4B98
:101C9000186F08B101F0C4FD074B19680A6822F4F7
:101CA00090720A6019688A6822F001028A60202214
:101CB000DA67DFE74C050020D406002008B5074BA3
:101CC0001B7A03B108BD0021044B59604FF48072A8
:101CD000034804F081FDFFF755FFF3E740030020C0
:101CE000D4050020014B187A704700BF4003002044
:101CF000014B1872704700BF4003002008B55838E8
:101D0000222818D8DFE800F012181E171717171727
:101D10001717171717171717171717171717171753
:101D2000171717171717171712181E00084880EDF6
:101D3000000A00F0B7FA08BD064880ED000A00F07E
:101D4000B1FAF8E7044880ED000A00F0ABFAF2E7D8
:101D5000C4070020F00700209807002008B5583875
:101D6000222818D8DFE800F012181E1717171717C7
:101D700017171717171717171717171717171717F3
:101D8000171717171717171712181E00084880ED96
:101D9000010A00F087FA08BD064880ED010A00F04C
:101DA00081FAF8E7044880ED010A00F07BFAF2E7D7
:101DB000C4070020F00700209807002008B5583815
:101DC000222818D8DFE800F012181E171717171767
:101DD0001717171717171717171717171717171793
:101DE000171717171717171712181E00084880ED36
:101DF000020A00F057FA08BD064880ED020A00F01A
:101E000051FAF8E7044880ED020A00F04BFAF2E7D5
:101E1000C4070020F007002098070020012303706A
:101E2000014B4360704700BF0400002008B52A4BF7
:101E30001B78102B0DD8DFE803F0090D0C0C230CD8
:101E40000C0C2D0C0C0C0C0C0C3B45002248FFF725
:101E5000E5FF08BD204B586890F82030002BF8D1E2
:101E60001E4B1B781C4A1370012B03D01B4B012205
:101E70001A70EEE78369002BEBD0FFF755FEE8E719
:101E8000154B5B6893F82030002BE2D1124B0122F6
:101E90001A70DEE7104B5B6893F82030002BD8D126
:101EA0000D4B0F4A5A6001220E490A701A70D0E792
:101EB000094B5B6893F82030002BCAD1064B0122F6
:101EC0001A70C6E7044B5B6893F82030002BC0D132
:101ED000014B01221A70BCE74C0300202C010020AA
:101EE0000400002028000020012303707047000038
:101EF00010B5704B1B7A012B2BD033B3022B40F063
:101F0000D7806D4B1B78433B372B00F2C480DFE852
:101F100003F081C2C2C2C2C2C2C28DC2C2C2C2C2A8
:101F2000C2C229C2C2C2C2485B6EC2C2C2C2C2C25F
:101F3000C2C2C2C2C2C2C2C2C2C28DC2C2C2C2C2B6
:101F4000C2C229C2C2C2C2485B6E5C48FFF7CCFF66
:101F5000AEE0FFF7C7FE012840F0AA80554B0222F1
:101F60001A72A5E0544B9B78412B10D0612B0ED0F8
:101F70004F2B02D06F2B40F09180782000F0FCF8BE
:101F8000792000F0F9F87A2000F0F6F886E0782061
:101F900000F0A6F8792000F0A3F87A2000F0A0F86D
:101FA0007CE0474804F0EBFB51EC100BFEF7DEFC45
:101FB000444B1B7813B1444B98626FE000EE100A5B
:101FC000782000F033F969E03D4804F0D8FB51EC8B
:101FD000100BFEF7CBFC3B4B1B7813B13B4B9862CD
:101FE0005CE000EE100A792000F020F956E0344859
:101FF00004F0C5FB51EC100BFEF7B8FC314B1B781D
:1020000013B1334B986249E000EE100A7A2000F0D9
:102010000DF943E02B4B1B782BB3002220214FF00E
:10202000904001F0EDFD274B00221A70294C20460C
:1020300004F0A5FB51EC100BFEF798FC14F8023CE1
:10204000502B1AD0702B18D0492B1DD0692B1BD0C8
:10205000442B01D0642B21D100EE100A164B987846
:10206000FFF7ACFE1AE0012220214FF0904001F072
:10207000C7FD144B01221A70D8E700EE100A0E4B70
:102080009878FFF73BFE09E000EE100A0A4B9878BB
:10209000FFF764FE02E0104805F002F806490F4819
:1020A00004F0FEFF0020FFF723FE024B01221A720C
:1020B00010BD00BF4C030020D405002054030020B5
:1020C000D505002034030020C4070020F0070020BD
:1020D00098070020D7050020B0A30008C8A3000877
:1020E00010B55838222822D8DFE800F01222342117
:1020F00021212121212121212121212121212121D0
:1021000021212121212121212121212112223400DB
:10211000184C0521204602F089F8012200212046B2
:1021200002F0B6F802220021204602F0B1F810BDFC
:10213000104C0521204602F079F84FF480720421FA
:10214000204602F0A5F84FF400720421204602F068
:102150009FF8ECE7074C0521204602F067F8402283
:102160000321204602F094F880220321204602F049
:102170008FF8DCE74404002010B5583822281ED818
:10218000DFE800F0121E2C1D1D1D1D1D1D1D1D1D37
:102190001D1D1D1D1D1D1D1D1D1D1D1D1D1D1D1D6F
:1021A0001D1D1D1D121E2C00124C01220021204657
:1021B00002F0BCF802220021204602F0B7F810BD60
:1021C0000C4C4FF480720421204602F0AFF84FF41B
:1021D00000720421204602F0A9F8F0E7054C4022E5
:1021E0000321204602F0A2F880220321204602F0BB
:1021F0009DF8E4E744040020DFED0A7AB4EEE70A34
:10220000F1EE10FA0ADCDFED087AB4EEE70AF1EE3F
:1022100010FA02D59FED040A704770479FED010A3E
:10222000704700BF00806D470080A34310B504468F
:10223000FFF7E2FFA4F1580022281CD8DFE800F0E5
:10224000121C261B1B1B1B1B1B1B1B1B1B1B1B1BDB
:102250001B1B1B1B1B1B1B1B1B1B1B1B1B1B1B1BCE
:10226000121C26000E4B1A68BCEEC00A10EE103A83
:102270009BB2C2F89C3010BD094B1A68BCEEC00A74
:1022800010EE103A9BB2C2F89C32F4E7044B1A6885
:10229000BCEEC00A10EE103A9BB2C2F81C32EAE75C
:1022A00044040020D0ED007A90ED017A37EE877A71
:1022B000D0ED026A37EE267A80ED037AF1EE677A86
:1022C00036EEA67A77EEC77AC0ED047AC0ED056ADD
:1022D00000238361C3610362704710B5044690ED2B
:1022E000077A80ED087AD0ED066AC0ED076AD0ED76
:1022F0000A7A37EEC00A80ED060AD0ED037A20EEA6
:10230000270AD0ED047A66EEA76A30EE260AD0EDF1
:10231000057A27EE277A30EE070AD0ED097A30EEFB
:10232000270A80ED090AFFF767FF84ED090A10BD4F
:1023300010B504460E4B18784FF47A73B3FBF0F3E4
:102340000C4A1068B0FBF3F001F042F968B90F2CA9
:1023500001D901200AE0002221464FF0FF3001F0B0
:10236000D9F8034B5C60002000E0012010BD00BFE5
:10237000300100200000002008B5074A136843F030
:1023800010031360032001F0A7F80020FFF7D0FF2F
:10239000FFF746FA002008BD00200240034A1168FA
:1023A000034B1B780B441360704700BF1C080020D0
:1023B00030010020014B1868704700BF1C08002046
:1023C00070477047704738B50268936803F003039D
:1023D000012B01D0002038BD136813F0010F34D059
:1023E000936803F00D03012B09D0036C43F0100335
:1023F0000364436C43F0010343640120EBE70446AC
:10240000936843F002039360036803221A60FFF7A6
:10241000D1FF054623689B6813F0010F13D0FFF727
:10242000C9FF401B0228F5D923689B6813F0010FF0
:10243000F0D0236C43F010032364636C43F001037A
:1024400063640120C7E70020C5E70020C3E7000060
:1024500038B50268936803F00303012B0DD091682F
:102460001A4B19420FD0036C43F010030364436C02
:1024700043F001034364012038BD136813F0010FDA
:10248000EDD00020F8E70446936843F00103936021
:10249000FFF790FF054623681B6813F0010F13D167
:1024A000FFF788FF401B0228F5D923681B6813F04B
:1024B000010FF0D1236C43F010032364636C43F0ED
:1024C000010363640120D7E70020D5E73F000080C7
:1024D00008B5406A036C43F040030364436C43F067
:1024E00004034364FFF76EFF08BD08B5406AFFF7B9
:1024F00067FF08BD08B5436A1A6C12F0500F03D08D
:102500009B6B1B6B984708BD1A6C42F400721A64EF
:102510001A68D26812F4406F0DD15A7E5AB91A6CFB
:1025200022F480721A641A6C12F4805F03D11A6C60
:1025300042F001021A641846FFF752F8E3E7000080
:1025400030B597B000230193002800F0D2810446F3
:102550000368B3F1A04F06D0924A934203D0F92109
:102560009148FFF75BF963684BB1B3F5803F06D044
:10257000B3F5003F03D0B3F5403F40F08880A36837
:1025800033B1082B04D0102B02D0182B40F08480DC
:10259000E36813B1202B40F084802369012B00F203
:1025A0008580637E012B00F28680E36A43B1B3F538
:1025B000806F05D0B3F5006F02D0B3F5406F7FD1C7
:1025C000A36A2BB3402B23D0802B21D0C02B1FD04C
:1025D000B3F5807F1CD0B3F5C07F19D0B3F5E07F91
:1025E00016D0B3F5007F13D0B3F5107F10D0B3F53C
:1025F000207F0DD0B3F5307F0AD0B3F5507F07D0E0
:10260000B3F5607F04D0B3F5707F01D0012B5CD1AE
:1026100094F83030012B5ED86369042B01D0082B6D
:102620005FD1636B012B62D8237E012B65D82369B0
:1026300073B1E369013B0F2B65D894F82030012B6F
:1026400067D894F820301BB1636A013B072B66D82A
:10265000236C13F0100F40F0AD80236C002B64D07E
:10266000002023689A6812F0805F04D09B6813F002
:10267000005F00F0A080236C23F0120343F01003EE
:102680002364636C43F001036364012093E0FA2147
:102690004548FFF7C3F872E7FB214348FFF7BEF850
:1026A00076E7FC214048FFF7B9F876E7FD213E4880
:1026B000FFF7B4F875E7FE213B48FFF7AFF874E782
:1026C000FF213948FFF7AAF87AE74FF480713648BE
:1026D000FFF7A4F89CE740F201113348FFF79EF89A
:1026E0009AE74FF481713048FFF798F899E740F284
:1026F00003112D48FFF792F896E74FF482712A48AC
:10270000FFF78CF893E74FF484712748FFF786F8BA
:1027100093E740F209112448FFF780F891E74FF45E
:1027200086712148FFF77AF892E76364E364A36453
:1027300084F83C302046FEF743FB23689B6813F087
:10274000805F01D000208CE72046FFF73CFE236C21
:1027500013F0100F85D1002883D1236C23F4885304
:1027600023F0020343F0020323642268936823F0FA
:10277000405393602268936843F0805393600B4BFF
:102780001B680B4AA2FB03239B0C03EB83035A0039
:10279000019202E0019B013B0193019B002BF9D1C7
:1027A0005FE700BF00010050D8A300080000002030
:1027B00083DE1B430020236C13F0100F40F0908049
:1027C000002840F08D8023689A6812F0040240F0DF
:1027D0008780216C21F4817141F002012164B3F101
:1027E000A04F54D04FF0A0410291996801F003012D
:1027F00001294FD0029B23B1996801F003010129FF
:102800004DD03D498B6823F4403365682B438B6082
:10281000617E4B03656B012D01D04FF48052134351
:10282000E2681343A268134394F82020012A3BD0A6
:10283000A26A012A02D0E16A0A431343226891681E
:1028400011F00C0F0CD1D16821F4804121F002016C
:10285000D160217E94F83020520042EA8132134345
:102860002168CD68254A2A401343CB602369012B98
:102870002DD02268136B23F00F03136300236364CE
:10288000236C23F0030343F0010323642FE01C496E
:102890000291AAE71B6813F0010FB9D1AAE71B68E0
:1028A00013F0010FB4D1ACE731B9626A013A43EADF
:1028B000424343F48033BBE7226C22F0220242F011
:1028C00020022264626C42F001026264B0E7216877
:1028D0000B6B23F00F03E269013A13430B63CDE75F
:1028E000236C23F0120343F010032364012017B07C
:1028F00030BD0120FBE700BF0003005007C0F0FF20
:102900000001005010B504460368B3F1A04F07D092
:10291000414A934204D040F2DF414048FEF77EFF37
:1029200023689B6813F0040F70D194F83C30012B9E
:102930006FD0012384F83C302046FFF789FD034621
:1029400000285FD1226C22F4706222F0010242F46E
:1029500080722264324A926812F01F0F17D02168E9
:10296000B1F1A04F13D0226C42F4801222642A4AA3
:1029700091421BD14FF0A042D26812F0007F15D0D7
:10298000226C22F4405242F4805222640EE0226C07
:1029900022F4801222642268D26812F0007F05D0EF
:1029A000226C22F4405242F480522264226C12F4CF
:1029B000805F24D0626C22F006026264002284F8F8
:1029C0003C2022681C211160154A926812F01F0FEA
:1029D0000FD0134A926802F01F02052A09D0104A4C
:1029E000926802F01F02092A03D02268B2F1A04FB8
:1029F0000DD121688A6842F004028A6007E0002253
:102A00006264DBE7002284F83C2000E002231846E1
:102A100010BD0223FBE700BF00010050D8A300084F
:102A200000030050F8B504460E4617460368B3F19C
:102A3000A04F07D0494A934204D040F6621148485B
:102A4000FEF7ECFE23689B6813F0040F40F08180D2
:102A500094F83C30012B7ED0012384F83C30414B6C
:102A60009B6813F01F0F05D0002384F83C3001252C
:102A70002846F8BD2046FFF7EBFC0546002864D148
:102A8000236C23F4706323F0010343F48073236405
:102A9000344B9B6813F01F0F17D02268B2F1A04F80
:102AA00013D0236C43F4801323642C4B9A421BD124
:102AB0004FF0A043DB6813F0007F15D0236C23F4A4
:102AC000405343F4805323640EE0236C23F48013BB
:102AD00023642368DB6813F0007F05D0236C23F4A4
:102AE000405343F480532364236C13F4805F29D054
:102AF000636C23F006036364002384F83C30A36B0B
:102B0000194A9A62A36B194ADA62A36B184A1A63CC
:102B100023681C221A602268536843F01003536034
:102B20002268D36843F00103D36021683B463246F4
:102B30004031A06B00F026FE2268936843F0040346
:102B4000936095E700236364D6E7002384F83C3064
:102B50008EE702258CE702258AE700BF00010050BE
:102B6000D8A3000800030050F5240008EB24000857
:102B7000D124000810B504460368B3F1A04F07D074
:102B8000054A934204D040F608310448FEF746FE59
:102B90002368186C10BD00BF00010050D8A30008C6
:102BA000704770477047704710B504460368B3F12B
:102BB000A04F07D0A64A934204D040F64731A5481B
:102BC000FEF72CFE637E012B35D86369042B01D000
:102BD000082B36D123681A6812F0040F03D05A6804
:102BE00012F0040F07D11A6812F0080F5ED05A686D
:102BF00012F0080F5AD0226C12F0100F03D1226C81
:102C000042F400722264944A926812F01F0F1ED0A0
:102C1000914A926802F01F02052A18D08E4A9268E3
:102C200002F01F02092A12D0B3F1A04F0FD04FF0CB
:102C3000A042D1680CE040F648318648FEF7EEFD30
:102C4000C3E740F649318348FEF7E8FDC2E7D9689B
:102C5000DA6812F4406F23D111F4005F20D11A68B2
:102C600012F0080F1CD09A6812F0040F10D15A68A5
:102C700022F00C025A60236C23F480732364236CCB
:102C800013F4805F0CD1236C43F00103236407E04D
:102C9000236C43F010032364636C43F0010363640B
:102CA0002046FEF79DFC23680C221A6023681A68F0
:102CB00012F0200F03D05A6812F0200F07D11A68C3
:102CC00012F0400F71D05A6812F0400F6DD0226C94
:102CD00042F400522264604A926812F01F0F12D030
:102CE0005D4A926802F01F02052A0CD05A4A926887
:102CF00002F01F02092A06D0B3F1A04F03D04FF013
:102D0000A042D16800E0D968DA6C12F0C00F46D159
:102D100011F0007F06D0DA6812F4406F3FD111F451
:102D2000005F3CD11A6812F0400F38D04A4A9268CE
:102D300012F01F0F12D0484A926802F01F02062AB2
:102D40000CD0454A926802F01F02072A06D0B3F160
:102D5000A04F03D04FF0A042D26800E0DA6812F42E
:102D6000001F1CD19A6812F0080F10D15A6822F087
:102D700060025A60236C23F480532364236C13F4A1
:102D8000807F0CD1236C43F00103236407E0236CA4
:102D900043F010032364636C43F001036364204633
:102DA000FFF7FEFE236860221A6023681A6812F09B
:102DB000800F03D05B6813F0800F3ED123681A6840
:102DC00012F4807F03D05B6813F4807F46D12368C0
:102DD0001A6812F4007F03D05B6813F4007F49D1B6
:102DE00023681A6812F0100F1DD05A6812F0100FE5
:102DF00019D0626B012A08D0174A926812F01F0F8F
:102E000044D1DB6813F0010F0AD0236C43F48063D4
:102E10002364636C43F0020363642046FFF7D2FA35
:102E2000236810221A6023681A6812F4806F03D096
:102E30005A6812F4806F2FD110BD236C43F4803395
:102E400023642046FFF7BDFA236880221A60B5E7A5
:102E500000010050D8A3000800030050236C43F485
:102E6000003323642046FFF79DFE23684FF48072F1
:102E70001A60ACE7236C43F4802323642046FFF7F9
:102E800092FE23684FF400721A60A9E70A4B9B6810
:102E900013F4404FC4D0B8E7226C42F4804222645D
:102EA000626C42F0080262644FF480621A6020464D
:102EB000FFF777FEC0E700BF0003005030B597B0C2
:102EC00005460C46002301930368B3F1A04F07D0D9
:102ED000B24A934204D041F2B751B148FEF79EFC8A
:102EE0006368013B0F2B73D8A368072B76D8E36880
:102EF000012B79D82369042B7CD82B68DA6812F06F
:102F0000180F03D16269B2F5805F16D3DA6802F058
:102F10001802082A74D0DA6802F01802102A74D055
:102F2000DB6803F01803182B02D163693F2B04D927
:102F300041F2BC519A48FEF771FCE368012B6ED058
:102F40002368013B112B64D895F83C30012B00F02D
:102F5000DA81012385F83C302A68936813F0040F66
:102F600040F0C7816368042B63D8116B03EB430304
:102F700058001F23834021EA0303216881400B434B
:102F800013632A68936813F00C0F40F09A8023684B
:102F9000092B7FD9916903EB43031E3B072098401F
:102FA00021EA0001A06800FA03F30B439361626910
:102FB0002968CB68C3F3C1035B0002FA03F32269FB
:102FC000013A032A00F2BC80DFE802F07199A4AF55
:102FD00041F2B8517248FEF721FC85E741F2B95140
:102FE0006F48FEF71BFC82E741F2BA516C48FEF7CE
:102FF00015FC7FE741F2BB516948FEF70FFC7CE707
:103000006269B2F5806F98D385E76269FF2A94D927
:1030100086E741F2C4516248FEF700FC94E723685A
:10302000013B0D2B90D941F2C8515D48FEF7F6FBEC
:103030008AE7092B0ED8516B03EB430358001E3867
:103040001F23834021EA0303216801FA00F00343B0
:10305000536396E70E2B0ED8916B03EB4303580096
:103060003C381F23834021EA0303216801FA00F062
:103070000343936385E7D16B03EB430358005A384E
:103080001F23834021EA0303216801FA00F0034370
:10309000D36376E7516903EB43030720984021EAA5
:1030A0000001A06800FA03F30B4353617FE70A6E47
:1030B0003C481040226843EA8263184340F00040D5
:1030C00008662A68936803F00303012B71D0E36854
:1030D000012B74D0D2F8B03020680121814023EA5E
:1030E0000103C2F8B0302368102B00F09180112B3F
:1030F00000F0AF80122B00F0B2800020FEE04A6E9C
:1031000028481040226843EA8263184340F0004098
:103110004866D6E78A6E23481040226843EA8263F5
:10312000184340F000408866CBE7C86E1D4A024055
:10313000206843EA8063134343F00043CB66C0E753
:103140000B6E03F0F8432268B3EB826F1CD02A6841
:10315000536E03F0F8432168B3EB816F19D02A68EE
:10316000936E03F0F8432168B3EB816F1CD02A689B
:10317000D36E03F0F8432168B3EB816FA1D1D36E16
:1031800023F00043D3669CE70B6E23F000430B66ED
:10319000DDE7536E23F000435366E0E70001005083
:1031A000D8A3000800F0FF83936E23F000439366DA
:1031B000DDE7136813F0010F89D000209EE0D2F8FC
:1031C000B0302068012181400B43C2F8B030236841
:1031D000092B0ED92868826903EB43031B3B0721A7
:1031E000994022EA0102A16801FA03F313438361C3
:1031F00079E728684269013303EB430307219940CB
:1032000022EA0102A16801FA03F3134343616AE76A
:103210003E4A926812F4000F7FF469AF2968B1F159
:10322000A04F23D04FF0A04202928A6802F003021E
:10323000012A1ED0029A22B1906800F003000128F2
:1032400021D0102B24D0112B42D0122B4AD0002099
:1032500054E02E4A926812F0807FDFD04AE72B4A72
:10326000926812F4800FD9D0002047E0284A0292D9
:10327000DBE70A6812F0010FDCD02B6C43F020036F
:103280002B6401203AE0126812F0010FF5D1D8E763
:10329000B1F1A04FD7D11D4A936843F40003936066
:1032A0001C4B1B68A2F14E62A2F58422A2F27D4261
:1032B000A2FB03239B0C03EB83035A00019202E061
:1032C000019B013B0193019B002BF9D1002015E0EC
:1032D000B1F1A04FB9D10D4A936843F08073936068
:1032E00000200BE0094A936843F4800393600020B8
:1032F00004E02B6C43F020032B640120002385F8AD
:103300003C3017B030BD0220FBE700BF0003005087
:10331000000100500000002070B594B004460D4636
:103320000368B3F1A04F04D041F694316748FEF72B
:1033300075FA2B68032B07D9052B05D0062B03D074
:10334000072B01D0092B6DD12B6853B36B682BB1C0
:10335000B3F5004F02D0B3F5404F69D1AB6803B36A
:10336000B3F5807F1DD0B3F5007F1AD0B3F5407F51
:1033700017D0B3F5806F14D0B3F5A06F11D0B3F5AB
:10338000C06F0ED0B3F5E06F0BD0B3F5006F08D06F
:10339000B3F5106F05D0B3F5206F02D0B3F5306FE1
:1033A0004CD12368B3F1A04F4ED04FF0A042009211
:1033B000009A002A00F0868094F83C10012900F061
:1033C0008380012184F83C109B6813F0040F6FD1B7
:1033D000936813F0040F6BD12B68002B43D03C484B
:1033E000836823F46043696894F8306041EA4631A9
:1033F0000B43836021688B6803F00303012B26D005
:10340000936803F00303012B27D031498B6823F421
:10341000716323F00F032A68A868024313438B608B
:1034200000204AE041F695312848FEF7F7F98BE78E
:1034300041F698312548FEF7F1F98FE741F69931C9
:103440002248FEF7EBF9ACE7224A0092B0E70B689E
:1034500013F0010FD4D000202FE0136813F0010FF8
:10346000D3D0002029E01A498B6823F460438B6095
:1034700021688B6803F00303012B0DD0936803F0E0
:103480000303012B0ED0124A936823F4716323F0D7
:103490000F039360002010E00B6813F0010FEDD0D4
:1034A00000200AE0136813F0010FECD0002004E0C4
:1034B000236C43F0200323640120002384F83C3074
:1034C00014B070BD0120FBE70220F9E7D8A3000883
:1034D000000300500001005010B50446C31E042B29
:1034E0000FD80A4AD36823F4E0631B041B0C2402A0
:1034F00004F4E064234343F0BF6343F40033D36038
:1035000010BDAC210248FEF789F9EAE700ED00E0C2
:1035100014A4000870B505460C4616460F2A25D897
:103520000F2C28D81B4BDB68C3F30223C3F107021F
:10353000042A28BF0422191D062921D9033B4FF074
:10354000FF3101FA02F224EA02049C4001FA03F37B
:1035500026EA03063443002D14DB2401E4B205F10E
:10356000604505F5614585F8004370BDC4210A48F2
:10357000FEF754F9D4E7C5210748FEF74FF9D1E724
:103580000023DCE705F00F052401E4B2034B5C5592
:10359000EBE700BF00ED00E014A4000814ED00E02C
:1035A00010B5041E0ADB002C07DB04F01F026409BF
:1035B00001239340044A42F8243010BDD821034827
:1035C000FEF72CF9EFE700BF00E100E014A40008CB
:1035D0000138B0F1807F0AD2064B5860064AF021CC
:1035E00082F823100020986007221A60704701209B
:1035F000704700BF10E000E000ED00E070B4066C22
:10360000C56B0124B4406C60046863604368102B90
:1036100005D0036899600368DA6070BC704703687E
:103620009A600368D960F8E70268054B1344054ABD
:10363000A2FB03231B099B000364034BC363704776
:10364000F8FFFDBFCDCCCCCC00000240002800F03C
:10365000928010B504460368484A934215D014324C
:10366000934212D0143293420FD0143293420CD0B2
:103670001432934209D01432934206D0143293424A
:1036800003D094213E48FEF7C9F8636823B1102B9C
:1036900002D0B3F5804F4BD1A368402B01D0002B53
:1036A0004BD1E368802B01D0002B4BD123692BB188
:1036B000B3F5807F02D0B3F5007F48D163692BB1A9
:1036C000B3F5806F02D0B3F5006F45D1A3690BB19C
:1036D000202B46D1E36943B1B3F5805F05D0B3F544
:1036E000005F02D0B3F5405F40D1022384F821305F
:1036F00021680A6822F47F5222F030026368A068D1
:103700000343E06803432069034360690343A069FE
:103710000343E069034313430B602046FFF784FF34
:103720000020A063012384F8213084F8200010BD1C
:1037300095211348FEF772F8AEE796211048FEF780
:103740006DF8AEE797210E48FEF768F8AEE79821CE
:103750000B48FEF763F8B1E799210948FEF75EF8D8
:10376000B4E79A210648FEF759F8B3E79B210448CD
:10377000FEF754F8B9E70120704700BF0800024087
:1037800050A40008F8B504460E4617461D465A1EBA
:103790004FF6FE739A420FD894F82030012B3AD09E
:1037A000012384F8203094F82130012B0AD0002323
:1037B00084F820300220F8BD40F24D111748FEF782
:1037C0002DF8E9E7022384F821300023A36322685F
:1037D000136823F0010313602B463A463146204616
:1037E000FFF70CFFE36A5BB12268136843F00E0336
:1037F00013602268136843F0010313600020DAE7C6
:103800002268136843F00A0313602268136823F0E8
:1038100004031360EDE70220CDE700BF50A40008C9
:1038200090F82130022B06D004238363002380F814
:103830002030012070470268136823F00E031360E4
:103840000268136823F001031360036CC16B01224B
:1038500002FA03F34B6080F82120002380F8203027
:103860001846704708B590F82130022B03D0042386
:103870008363012008BD0268136823F00E03136000
:103880000268136823F001031360036CC16B01220B
:1038900002FA03F34B6080F82120002380F82030E7
:1038A000436B13B198470020E4E70020E2E738B506
:1038B000C36B1A6804682568016C04238B401342AB
:1038C00013D015F0040F10D0236813F0200F03D18C
:1038D000236823F004032360016CC26B04238B4034
:1038E0005360C36A03B1984738BD02238B4013422B
:1038F0001AD015F0020F17D0236813F0200F06D14D
:10390000236823F00A032360012380F82130016C2F
:10391000C26B02238B405360002380F82030836AFF
:10392000002BE1D09847DFE7082303FA01F11142A9
:10393000DAD015F0080FD7D0236823F00E032360E8
:10394000026CC16B012303FA02F24A60836380F8C0
:103950002130002380F82030036B002BC4D098471F
:10396000C2E700002DE9F04182B080460C46B0F17C
:10397000904F12D09D4B98420FD003F58063984230
:103980000BD003F58063984207D003F5006398429B
:1039900003D0B2219648FDF741FF23689AB212B1D5
:1039A0001B0C1B041BB1B3219148FDF737FF636863
:1039B000012B19D9112B17D0022B15D0122B13D094
:1039C000B3F5881F10D0B3F5041F0DD0B3F5441F15
:1039D0000AD0B3F5901F07D0B3F5081F04D0B3F594
:1039E000481F01D0032B01D1002593E0B42180486A
:1039F000FDF714FFF8E7E368012B01D9032B17D17A
:103A0000D8F80820690003238B4022EA0302E36808
:103A10008B401343C8F80830D8F8042022EA070284
:103A20006368C3F30017AF401743C8F8047080E021
:103A3000C3216F48FDF7F2FEE2E7D4216C48FDF7A1
:103A4000EDFE7FE0B8F1904F12D0684B98450FD053
:103A500003F5806398450BD003F58063984507D044
:103A600003F50063984503D0E2216148FDF7D6FED7
:103A700023690D2B01D90F2B10D1EA08083258F811
:103A8000220005F0070399000F238B4020EA030072
:103A900023698B40034348F8223065E0E321544812
:103AA000FDF7BCFEE9E7032300E000238B4003435E
:103AB0000232504941F822304F4B1A68F34303EA6F
:103AC0000201606810F4803F01D046EA02014A4AD0
:103AD0001160526803EA0201606810F4003F01D0EF
:103AE00046EA0201444A5160926803EA02016068B2
:103AF00010F4801F01D046EA02013F4A9160D2686B
:103B00001340616811F4001F01D046EA02033A4AEB
:103B1000D3600135266836FA05F363D00127AF403C
:103B20003E40F6D0636803F00303013B012B7FF6B0
:103B300062AF636803F00303032B0FD0A368022B6B
:103B40003FF67BAFD8F80C20690003238B4022EAB4
:103B50000302A3688B401343C8F80C30636803F07A
:103B60000303022B3FF46EAFD8F800206900032353
:103B70008B4022EA0302636803F003038B40134384
:103B8000C8F80030636813F4403FC2D01B4B9A69F9
:103B900042F001029A619B6903F001030193019BCA
:103BA000AA08911C134B53F8210005F00303990058
:103BB0000F238B4020EA0300B8F1904F3FF475AF1C
:103BC0000A4B98450AD003F58063984508D003F561
:103BD000806398453FF467AF052367E7012365E7F6
:103BE000022363E702B0BDE8F08100BF0004004893
:103BF00088A40008000001400004014000100240B9
:103C000070B5054614460E4621B1012C08D86CB992
:103C1000AE6270BD4FF4D2710548FDF7FFFDF4E7C9
:103C200040F2A5110248FDF7F9FDF0E7AE61F0E7BB
:103C300088A4000810B40468226822F007028B6888
:103C4000134323F01803CA681343236003680A6808
:103C50005A6103684A689A615DF8044B704770B412
:103C600006684C1CE401355925F0070593682B4381
:103C700023F01803D5682B43335103681468C90136
:103C80000B44C3F89440036852681944C1F8982063
:103C900070BC704730B404682268D4F8A05322F096
:103CA00020024B69134323F400628B69134323F40E
:103CB0008062CB69134323F0C0620B6A134323F085
:103CC00000624B6A134323F040438A6A43EA82034B
:103CD00023F000530A6B134325F48035CA6A154359
:103CE00023600368C3F8A05330BC70472DE9F0414E
:103CF00005684B1CDB01EC5824F07044EC5007685D
:103D0000FB5807EBC114D4F8E8C0D4F8E450D7F856
:103D1000A06323F020045369234323F400649369D0
:103D2000234323F48064D369234323F0C064136ADC
:103D3000234323F00064536A234323F07044936ABF
:103D4000234323F40033146BB4F1005F35D023F028
:103D50004003D2F834E04EEA030323F48023146DC9
:103D6000234323F0FC73946C43EA04082CF01F0CEB
:103D7000946B04F01F0444EA0C0424F00044D36B59
:103D80001C43BEF1000F03D125F48075136C1D4355
:103D9000D2F844C0BCF5606F12D0BCF5F05F0FD014
:103DA00025F4F0554CEA0505D2F84CC0042910D88A
:103DB000DFE801F00A252B31370043F40033C6E772
:103DC000BEF1400FF0D1EBE726F40036D26A46EAA6
:103DD00042064A1CD20147F802800368C9010B441D
:103DE000C3F8E84003680B44C3F8E450036819447F
:103DF000C1F8D4C00368C3F8A063BDE8F08126F41D
:103E00008026D26A46EA8206E3E726F40026D26AD2
:103E100046EAC206DDE726F48016D26A46EA0216B2
:103E2000D7E726F40016D26A46EA4216D1E7F0B484
:103E3000076807EBC114D4F8E450D4F8B860102A2E
:103E400007D02FD9802A34D044D8202A31D0402A14
:103E50003ED15C684FEAC11C6744C7F8BC400268A9
:103E60009C686244C2F8C0400022FE24944025EAC7
:103E700004051C6894402543DC6894402C431F696A
:103E800007FA02F525435C69944025439C699440F8
:103E90002C43082F25D0036803EBC111C1F8E4407F
:103EA000F0BC7047022A04D010D9042AD1D0082AC5
:103EB0000ED15C684FEAC11C6744C7F8C440026871
:103EC0009C686244C2F8C8401022CEE7012AC0D0E4
:103ED0000022CAE7B2F5807FBBD0B2F5007FF7D1F0
:103EE000E7E716F0022FD6D1DB6903FA02F214439A
:103EF000D1E7052933D8DFE801F00B131B232B038F
:103F00000268D2F8843343F00103C2F88433704767
:103F10000268D2F8843343F00203C2F88433704756
:103F20000268D2F8843343F00403C2F88433704744
:103F30000268D2F8843343F00803C2F88433704730
:103F40000268D2F8843343F01003C2F88433704718
:103F50000268D2F8843343F02003C2F884337047F8
:103F6000002800F0A58010B582B004460268514BCD
:103F70009A4204D040F226214F48FDF74FFC636877
:103F800023F4403323F03F03002B58D1022384F85D
:103F9000C1300023C4F8C430C4F8C830C4F8CC30F1
:103FA000C4F8D030C4F8D430C4F8D830A36813F0C3
:103FB000010F25D0236943B1B3F5804F05D0B3F588
:103FC000004F02D0B3F5404F3FD163692BB1B3F539
:103FD000005F02D0B3F5405F3DD12268354B9A4275
:103FE0003FD021680A6822F44042236903F4404329
:103FF000134323F44053626902F4405213430B60AD
:104000002046FDF719F8A36813F0020F10D0E368FB
:104010002BB1B3F5007F02D0B3F5407F2DD12168DD
:104020000A6822F44072E36803F4407313430B60A0
:10403000012384F8C130002284F8C02033E040F22C
:1040400027211D48FDF7EAFBA0E740F25D211A4851
:10405000FDF7E4FBB9E740F25E211748FDF7DEFB10
:10406000BBE703F51C439A6942F000529A619B69D1
:1040700003F000530193019BB3E740F282210E4805
:10408000FDF7CCFBCBE7D000811A8B002344002145
:104090009961D961196259629962831A9800204422
:1040A00001630132D2B2052AEDD9002002B010BD61
:1040B0000120704700740140C4A4000838B50446CC
:1040C0000D464B1E13F1030F05D8042903D0082910
:1040D00001D00C2927D194F8C030012B38D001230E
:1040E00084F8C030022384F8C130B5F1FF3F20D0FE
:1040F0002268D2F8CC3343F00203C2F8CC332268F2
:10410000D2F8CC3323F00C031D43C2F8CC53226801
:10411000D2F8CC3343F00103C2F8CC33012384F846
:10412000C130002038BD40F2F9210A48FDF776FB86
:10413000D1E72268D2F8CC3323F00203C2F8CC33A3
:104140002268D2F8CC3343F00103C2F8CC33E5E760
:104150000220E7E7C4A4000870B504460D46FEF748
:1041600029F906462368D3F8883313F4803F0ED12B
:10417000B5F1FF3FF6D0FEF71DF9801BA84201D82C
:10418000002DEFD1072384F8C130032005E001237F
:1041900084F8C130002084F8C00070BD70B50546B9
:1041A0000C461646052908D039B1012905D0022947
:1041B00003D0032901D004291CD1B368072B1FD8D1
:1041C000F368082B02D00BB1102B1FD195F8C1302A
:1041D000DBB2022B25D0022385F8C130052C1BD081
:1041E000324621462846FFF73AFD012385F8C130C3
:1041F000002070BD40F286310B48FDF70FFBDCE775
:1042000040F287310848FDF709FBD9E74FF46271A6
:104210000548FDF703FBD9E731462846FFF70AFDBD
:10422000E3E70220E5E700BFC4A4000838B5044670
:104230000D46052908D039B1012905D0022903D03E
:10424000032901D0042916D194F8C030012B18D0CD
:10425000012284F8C020022384F8C13021680B6851
:10426000094850F8250003430B6084F8C120002062
:1042700084F8C00038BD4FF473710448FDF7CEFADE
:10428000E2E70220F6E700BF68A30008C4A4000824
:1042900070B5044616460D4611B9531E012B12D9AE
:1042A000012D2DD0022D30D0032D33D0042D05D17A
:1042B000B6F5807F07D0B6F5007F04D040F6350113
:1042C0001848FDF7ABFA94F8C030012B27D0012233
:1042D00084F8C020022384F8C1302168D1F89433D7
:1042E0001E43C1F8946321680B680F4850F82500FD
:1042F00003430B6084F8C120002084F8C00070BD27
:10430000042EE0D0082ECDD1DDE7102EDBD0202EFC
:10431000CAD1D8E7402ED6D0802EC7D1D3E702200D
:10432000EDE700BFC4A4000868A3000870B5044608
:1043300016460D4611B9531E012B15D9012D00F05B
:104340008680022D00F08980032D00F08C80042DE2
:1043500005D1B6F5807F07D0B6F5007F04D040F6D2
:1043600067014548FDF75AFA94F8C030012B00F078
:104370008180012384F8C030022384F8C130226890
:10438000D2F898331E43C2F898633C4B53F825305B
:1043900013F4803F04D02268136823F48033136041
:1043A000364B53F8253013F4003F09D02368D3F877
:1043B000942312F0030F03D11A6822F400321A601A
:1043C0002E4B53F8253013F4802F09D02368D3F8EF
:1043D000942312F00C0F03D11A6822F480221A6081
:1043E000264B53F8253013F4002F09D02368D3F857
:1043F000942312F0300F03D11A6822F400221A60BD
:104400001E4B53F8253013F4801F09D02368D3F8CE
:10441000942312F0C00F03D11A6822F480121A609C
:10442000164B53F8253013F4001F09D02368D3F836
:10443000942312F4407F03D11A6822F400121A6008
:10444000012384F8C130002084F8C00070BD042E20
:104450008AD0082E7FF475AF86E7102E84D0202EE8
:104460007FF472AF80E7402E3FF47EAF802E7FF462
:104470006EAF79E70220E9E7C4A4000868A300084A
:1044800070B504460D4616464B1E012B03D9042970
:1044900001D008292BD1336873B1B3F5803F0BD01D
:1044A000B3F5003F08D0B3F5403F05D0B3F5802FFA
:1044B00002D0B3F5A02F20D194F8C130DBB2022B8B
:1044C00061D094F8C030012B5FD0012384F8C03054
:1044D000022384F8C1302268D2F88033013D072DD1
:1044E0004AD8DFE805F0102849334949493E41F2EE
:1044F0000D012848FDF792F9CDE741F20E0125485C
:10450000FDF78CF9D8E723F4E023316801F4E021CA
:104510000B437168C2F8BC1394F8C120D2B2072AC9
:1045200035D02268C2F88033012384F8C1300020DE
:1045300084F8C00070BD23F460133168C90001F431
:1045400060110B437168C2F8C013E5E723F0E07314
:104550003168890101F0E0710B437168C2F8C4133E
:10456000DAE723F060633168490201F060610B43D0
:104570007168C2F8C813CFE7072284F8C12000226F
:1045800084F8C020C8E70220D4E70220D2E7012047
:10459000D0E700BFC4A4000870B505460E46144617
:1045A000052909D041B1012906D0022904D00329E7
:1045B00002D0042940F0DE80636913B1202B40F063
:1045C000DF80A3691BB1B3F5006F40F0DF80E369C2
:1045D0001BB1B3F5806F40F0DF80236A4BB1B3F1BC
:1045E000007F06D0B3F1806F03D0B3F1C06F40F00D
:1045F000D980636A1BB1B3F1006F40F0D980E36AE0
:104600001BB1B3F5803F40F0D980236B1BB1B3F1F0
:10461000005F40F0D98095F8C130DBB2022B00F08A
:10462000368195F8C030012B00F03381012385F8E5
:10463000C030022385F8C130052E00F0CB80A36A7C
:10464000C3B1B3F1805F15D0B3F1005F12D0B3F105
:10465000405F0FD0B3F1804F0CD0B3F1A04F09D021
:10466000B3F1C04F06D0B3F1E04F03D0B3F1004F28
:1046700040F0D780236823F4FF4323F05F03002B2F
:1046800040F0D580636823F0FF4323F4BE03002B82
:1046900040F0D380636B13B1402B40F0D480A36B08
:1046A00033F01F0340F0D580E36B1BB1B3F1004F33
:1046B00040F0D580636B23B9226C5AB1B2F5807F8C
:1046C00008D0402B01D1236C23B141F2CC017248B8
:1046D000FDF7A4F8636CFBB1B3F5007F1CD0B3F514
:1046E000C06F19D0B3F5206F16D0B3F5905F13D01B
:1046F000B3F5B05F10D0B3F5D05F0DD0626B402A38
:1047000005D1B3F5606F07D0B3F5F05F04D041F287
:10471000CE016148FDF782F8A36C33F0FC7340F0E2
:10472000A480E26C5D4B1A4240F0A580236D1BB162
:10473000B3F5802F40F0A580224631462846FFF78A
:10474000D5FA2168F200921B93002B44196262682B
:104750005A62A2689A62E268DA6222691A63314692
:104760002846FFF7C6FB012385F8C130002085F8F5
:10477000C00070BD41F2A3014748FDF74FF81BE7A9
:1047800041F2A6014448FDF749F81AE741F2A701B2
:104790004148FDF743F81AE741F2A8013E48FDF70A
:1047A0003DF81AE741F2A9013B48FDF737F820E749
:1047B00041F2AA013848FDF731F820E741F2AB0198
:1047C0003548FDF72BF820E741F2AC013248FDF700
:1047D00025F820E7A36A2BB1B3F1805F02D0B3F1D3
:1047E000005F0CD1236833F07F030ED1636833F48C
:1047F000FE0310D121462846FFF74CFAA1E741F20B
:10480000BB012548FDF70AF8ECE741F2BC0122485C
:10481000FDF704F8EAE741F2BD011F48FCF7FEFF8F
:10482000E8E741F2C5011C48FCF7F8FF22E741F236
:10483000C6011948FCF7F2FF24E741F2C701164808
:10484000FCF7ECFF26E741F2C8011348FCF7E6FF4E
:1048500025E741F2C9011048FCF7E0FF24E741F2E7
:10486000CA010D48FCF7DAFF24E741F2CF010A48FC
:10487000FCF7D4FF55E741F2D0010748FCF7CEFF23
:1048800054E741F2D1010448FCF7C8FF54E7022085
:104890006FE702206DE700BFC4A40008010000809C
:1048A00070B505460E461446042978D82368A3B18E
:1048B000B3F5806F11D0B3F5006F0ED0B3F5406F34
:1048C0000BD0B3F5805F08D0B3F5A05F05D0B3F58A
:1048D000C05F02D0B3F5E05F67D1A36813B1B3F551
:1048E000007F68D1E36813B1B3F5004F69D1236944
:1048F00013B1B3F5804F6AD1A36913B1B3F1007F4F
:104900006BD1E36913B1B3F1004F6CD1236A13B1DA
:10491000B3F1804F6DD195F8C130DBB2022B6ED070
:1049200095F8C030012B6CD0012185F8C01002230E
:1049300085F8C130226802F4E0506368C3F30802CE
:104940000243A36803F400731A43236903F480430A
:1049500043EA0200E36803F40042024360692A4B21
:1049600003EA00431A43A36903F000731343226A66
:1049700002F080421A43E36903F000431A432B68B4
:1049800003EBC616D6F8B800204B03401343C6F815
:10499000B83085F8C110002085F8C00070BD41F224
:1049A0008C111B48FCF73AFF80E741F28D11184843
:1049B000FCF734FF91E741F28E111548FCF72EFF0A
:1049C00090E741F28F111248FCF728FF8FE741F280
:1049D00090110F48FCF722FF8EE741F291110C482D
:1049E000FCF71CFF8DE741F292110948FCF716FF16
:1049F0008CE741F293110648FCF710FF8BE7022089
:104A0000CCE70220CAE700BF0000FF010020003C05
:104A1000C4A40008F8B504460D4616461F460529ED
:104A200008D039B1012905D0022903D0032901D0CA
:104A3000042920D194F8C130DBB2022B00F0F880B9
:104A400094F8C030012B00F0F580012384F8C030C9
:104A5000022384F8C130052D13D0731E072B00F2FA
:104A6000E080DFE813F034004700DE008E00DE0057
:104A7000DE00DE00950041F284217048FCF7CEFE96
:104A8000D8E7013E072E1BD8DFE806F0040E1A1205
:104A90001A1A1A1623683A68DA6194F8C130DBB240
:104AA000072B20D1012024E023683A685A62F4E7FA
:104AB00023683A689A62F0E723683A68DA62ECE7BA
:104AC000072384F8C130002384F8C030E5E7236869
:104AD0003A6803EBC515C5F89C2094F8C130DBB2E9
:104AE000072B00F0A980012384F8C130002084F84E
:104AF000C000F8BD022E28D0082E26D041F2CC21CD
:104B00004E48FCF78BFE23683A6803EBC513C3F8E5
:104B1000A4207B686BB321686B1CDB01CA5822F4AC
:104B20004052CA502168CA5878680243CA507B680C
:104B3000B3F5005F16D0B3F5405FCED12368BA68F5
:104B400003EBC513C3F8A820C7E77B68002BDAD0B6
:104B5000B3F5805FD7D0B3F5005FD4D0B3F5405F35
:104B6000CCD1D0E72368BA6803EBC513C3F89C2007
:104B7000B3E722680135ED01535923F440535351F3
:104B8000ABE723683A6803EBC515C5F8A820A4E78E
:104B9000022E2AD0082E28D041F2F9212748FCF70E
:104BA0003DFE23683A6803EBC513C3F8AC207B686D
:104BB0007BB321686B1CDB01CA5822F44042CA5007
:104BC0002168CA58786842EA8002CA507B68B3F507
:104BD000005F17D0B3F5405F7FF47FAF2368BA68FA
:104BE00003EBC513C3F8A82077E77B68002BD8D068
:104BF000B3F5805FD5D0B3F5005FD2D0B3F5405F99
:104C0000CAD1CEE72368BA6803EBC513C3F89C206A
:104C100063E722680135ED01535923F440435351B2
:104C20005BE7072384F8C130002384F8C03054E7E1
:104C300002205EE702205CE701205AE7C4A40008D6
:104C40002DE9F041054617461C460E4611B9531E84
:104C5000012B12D9012E49D0022E4CD0032E4FD059
:104C6000042E05D1B7F5807F07D0B7F5007F04D0BB
:104C700041F2A3313948FCF7D1FD23680BB1022B77
:104C800043D123690BB1082B45D1E3680BB1042B49
:104C900047D163692BB1102B03D0202B01D0302BCF
:104CA00045D1A3690BB1402B47D1E3690BB1802BF0
:104CB00049D195F8C130DBB2022B4AD095F8C0300B
:104CC000012B48D04FF0010885F8C080022385F8F9
:104CD000C13023463A4631462846FFF7A8F885F802
:104CE000C180002085F8C000BDE8F081042FC4D049
:104CF000082FB1D1C1E7102FBFD0202FAED1BCE714
:104D0000402FBAD0802FABD1B7E741F2A43113487E
:104D1000FCF784FDB5E741F2A5311048FCF77EFDB4
:104D2000B3E741F2A6310D48FCF778FDB1E741F257
:104D3000A7310A48FCF772FDB3E741F2A8310748F2
:104D4000FCF76CFDB1E741F2A9310448FCF766FDC0
:104D5000AFE70220C8E70220C6E700BFC4A40008EE
:104D6000002800F09C8370B582B00446036813B13C
:104D700013F00F0F2BD0236813F0010F4FD063688F
:104D80002BB1B3F5803F02D0B3F5A02F25D1B44BA2
:104D90005B6803F00C03042B2AD0B14B5B6803F073
:104DA0000C03082B1FD06368B3F5803F7CD0002B29
:104DB00040F0A68003F1804303F504331A6822F41F
:104DC00080321A601A6822F480221A6071E040F280
:104DD0004B11A448FCF722FDCDE740F25111A14848
:104DE000FCF71CFDD3E79E4B5B6813F4803FDAD0E1
:104DF0004FF4003393FAA3F3994B19684FF400333F
:104E000093FAA3F3B3FA83F303F01F03012202FA28
:104E100003F30B4203D06368002B00F04283236846
:104E200013F0020F00F0DA802369012B00F2A0805A
:104E300063691F2B00F2A280894B5B6813F00C0F93
:104E400000F0A880864B5B6803F00C03082B00F091
:104E50009B802369002B00F00981012292FAA2F3C2
:104E6000B3FA83F303F1845303F584139B001A60B0
:104E7000FDF7A0FA0546022393FAA3F3784B1968CD
:104E8000022393FAA3F3B3FA83F303F01F0301227F
:104E900002FA03F30B4240F0D380FDF78BFA401B7C
:104EA0000228E8D9032003E36D4A136843F48033F2
:104EB00013606B4AD36A23F00F03A1680B43D362DC
:104EC0006368002B36D0FDF775FA05464FF40033C2
:104ED00093FAA3F3624B19684FF4003393FAA3F3E8
:104EE000B3FA83F303F01F03012202FA03F30B4228
:104EF00095D1FDF75FFA401B6428E7D90320D7E27C
:104F0000B3F5A02F09D0564B1A6822F480321A60EC
:104F10001A6822F480221A60CBE703F18043A3F5DC
:104F20003C331A6842F480221A601A6842F48032D4
:104F30001A60BEE7FDF73EFA05464FF4003393FAD8
:104F4000A3F3474B19684FF4003393FAA3F3B3FA72
:104F500083F303F01F03012202FA03F30B423FF431
:104F60005EAFFDF727FA401B6428E6D903209FE2D5
:104F700040F289113B48FCF751FC59E74FF4C571E9
:104F80003848FCF74BFC57E7354B5B6813F4803F20
:104F90007FF45FAF022393FAA3F3314B1968022326
:104FA00093FAA3F3B3FA83F303F01F03012202FA87
:104FB00003F30B4204D02369934201D0012077E22E
:104FC0002748036823F0F8036169F82292FAA2F2F5
:104FD000B2FA82F201FA02F213430360236813F07B
:104FE000080F00F09880A369012B66D8A369002BF5
:104FF00069D0012191FAA1F2B2FA82F21A4B13445C
:105000009B001960FDF7D6F90546022393FAA3F237
:1050100093FAA3F293FAA3F2114A516A93FAA3F313
:10502000B3FA83F303F01F03012202FA03F30B42E6
:1050300071D1FDF7BFF9401B0228E6D9032037E202
:105040000748036823F0F8036169F82292FAA2F294
:10505000B2FA82F201FA02F213430360BEE700BF24
:105060000010024000A5000820819010012393FA4F
:10507000A3F3B3FA83F303F1845303F584139B0082
:1050800000221A60FDF796F90546022393FAA3F36E
:10509000B94B1968022393FAA3F3B3FA83F303F02D
:1050A0001F03012202FA03F30B4297D0FDF782F9A6
:1050B000401B0228E9D90320FAE14FF4E571AF481B
:1050C000FCF7ACFB92E7012292FAA2F2B2FA82F26A
:1050D000AB4B13449B0000221A60FDF76BF90546A9
:1050E000022393FAA3F293FAA3F293FAA3F2A24A49
:1050F000516A93FAA3F3B3FA83F303F01F03012277
:1051000002FA03F30B4206D0FDF754F9401B0228C4
:10511000E6D90320CCE1236813F0040F00F0C0802F
:10512000E368012B01D9052B26D1934BDB6913F0E2
:10513000805F27D1904BDA6942F08052DA61DB69F7
:1051400003F080530193019B01258E4B1B6813F4E0
:10515000807F19D0E368012B2AD0002B34D103F1D2
:10516000804303F504331A6A22F001021A621A6AB4
:1051700022F004021A6220E04FF4FB717F48FCF732
:105180004DFBD2E70025E0E77E4A136843F48073C5
:105190001360FDF70FF906467A4B1B6813F4807F06
:1051A000D8D1FDF707F9801B6428F5D903207FE1EA
:1051B000714A136A43F001031362E368002B41D084
:1051C000FDF7F8F806462BE0052B09D06A4B1A6A62
:1051D00022F001021A621A6A22F004021A62ECE753
:1051E000654B1A6A42F004021A621A6A42F001021E
:1051F0001A62E2E7604B196A022393FAA3F3B3FA47
:1052000083F303F01F03012202FA03F3194245D18D
:10521000FDF7D0F8801B41F28833984200F24381B9
:10522000022393FAA3F293FAA3F3B3FA83F35B098D
:1052300043F00203022BDDD0022393FAA3F34E4B7B
:10524000596AD9E7FDF7B6F8064615E04A4B196AE0
:10525000022393FAA3F3B3FA83F303F01F030122AB
:1052600002FA03F3194219D0FDF7A4F8801B41F2AA
:105270008833984200F21981022393FAA3F293FA39
:10528000A3F3B3FA83F35B0943F00203022BDDD0EF
:10529000022393FAA3F3384B596AD9E7002D73D14F
:1052A000E369022B76D8E369002B00F00081324AD3
:1052B000526802F00C02082A00F0DF80022B40F056
:1052C000B080236A13B1B3F5803F69D1636A4BB3F1
:1052D000B3F5802F26D0B3F5002F23D0B3F5402FA0
:1052E00020D0B3F5801F1DD0B3F5A01F1AD0B3F5A1
:1052F000C01F17D0B3F5E01F14D0B3F5001F11D0B5
:10530000B3F5101F0ED0B3F5201F0BD0B3F5301F2F
:1053100008D0B3F5401F05D0B3F5501F02D0B3F548
:10532000601F43D14FF0807393FAA3F3B3FA83F372
:1053300003F1845303F584139B0000221A60FDF7E8
:1053400039F805464FF0007393FAA3F30A4B196836
:105350004FF0007393FAA3F3B3FA83F303F01F0340
:10536000012202FA03F3194226D0FDF723F8401B6D
:105370000228E7D903209BE00010024000A50008A6
:1053800020819010007000404C4AD36923F0805374
:10539000D36185E740F23A214948FCF73FFA82E7BA
:1053A00040F243214648FCF739FA8FE74FF4117178
:1053B0004348FCF733FAB5E740494B6823F47413CC
:1053C000626A206A024313434B604FF0807393FA82
:1053D000A3F3B3FA83F303F1845303F584139B001F
:1053E00001221A60FCF7E6FF04464FF0007393FABF
:1053F000A3F3324B19684FF0007393FAA3F3B3FA97
:1054000083F303F01F03012202FA03F3194206D1CA
:10541000FCF7D0FF001B0228E7D9032048E000205A
:1054200046E04FF0807393FAA3F3B3FA83F303F1EA
:10543000845303F584139B0000221A60FCF7BAFF23
:1054400004464FF0007393FAA3F31C4B19684FF016
:10545000007393FAA3F3B3FA83F303F01F0301225B
:1054600002FA03F3194206D0FCF7A4FF001B02283E
:10547000E7D903201CE000201AE0012B1AD00F4BC3
:105480005B6803F48031226A914201D001200FE071
:1054900003F47013626A93420ED0012008E00120E9
:1054A0007047012004E0032002E0032000E0002018
:1054B00002B070BD0120FBE70020F9E700100240B8
:1054C00000A5000810B4174B5C6804F00C03082B0F
:1054D00026D104F470124FF4701393FAA3F3B3FAC5
:1054E00083F322FA03F31049C85C0E4BDB6A03F026
:1054F0000F030F2292FAA2F2B2FA82F2D3400B44C7
:105500001A7C14F4803F05D1084B03FB00F05DF8D2
:10551000044B7047064BB3FBF2F300FB03F0F6E7D6
:105520000348F4E70010024080A3000800093D0092
:1055300000127A00002800F01C8170B504460D4668
:10554000036813F00F0F14D0022D18D88B4B1B6873
:1055500003F00703AB4218D2884A136823F007030D
:105560002B431360136803F00703AB420DD00120F7
:1055700070BD40F2C3218248FCF750F9E4E74FF4D4
:1055800031717F48FCF74AF9E0E7236813F0020F16
:1055900018D0A3687BB1802B0DD0902B0BD0A02B03
:1055A00009D0B02B07D0C02B05D0D02B03D0E02BD7
:1055B00001D0F02B3ED1734A536823F0F003A16869
:1055C0000B435360236813F0010F69D06368022B0B
:1055D00036D86368012B39D0022B4CD0022292FAC4
:1055E000A2F2684A1068022292FAA2F2B2FA82F299
:1055F00002F01F02012101FA02F2104200F0BB800A
:1056000060494A6822F0030213434B60FCF7D2FE64
:1056100006465C4B5B6803F00C036268B3EB820FD9
:105620003ED0FCF7C7FE801B41F288339842F0D988
:1056300003209DE740F2DB215148FCF7EFF8BAE781
:1056400040F2E2214E48FCF7E9F8C2E74FF400329D
:1056500092FAA2F24B4A10684FF4003292FAA2F288
:10566000B2FA82F202F01F02012101FA02F20242B2
:10567000C6D101207CE74FF0007292FAA2F2414AB3
:1056800010684FF0007292FAA2F2B2FA82F202F0BF
:105690001F02012101FA02F21042B1D1012067E795
:1056A000364B1B6803F00703AB420CD9334A13682F
:1056B00023F007032B431360136803F00703AB4287
:1056C00001D0012054E7236813F0040F14D0E368DD
:1056D0005BB1B3F5806F08D0B3F5A06F05D0B3F51B
:1056E000C06F02D0B3F5E06F37D1264A536823F478
:1056F000E063E1680B435360236813F0080F15D093
:1057000023695BB1B3F5806F08D0B3F5A06F05D006
:10571000B3F5C06F02D0B3F5E06F24D1194A5368D6
:1057200023F46053216943EAC1035360FFF7CAFEC3
:10573000144B5B6803F0F003F02292FAA2F2B2FA83
:1057400082F2D340104AD35CD840104B1860104B03
:105750001868FCF7EDFD00200AE740F21E3108480A
:10576000FCF75CF8C1E740F225310548FCF756F834
:10577000D4E7012070470120FAE600BF0020024074
:1057800000A500080010024050A3000800000020FF
:1057900034010020014B1868704700BF0000002052
:1057A00008B5FFF7F7FF074B5B6803F4E0634FF4BE
:1057B000E06292FAA2F2B2FA82F2D340024AD35CD9
:1057C000D84008BD0010024060A3000808B5FFF7EC
:1057D000E1FF074B5B6803F460534FF4605292FAA9
:1057E000A2F2B2FA82F2D340024AD35CD84008BD9A
:1057F0000010024060A30008F0B583B004460268C0
:10580000A04B9A4200F2D180236813F4803F54D019
:1058100063684BB1B3F5807F06D0B3F5007F03D04A
:10582000B3F5407F40F0C680974BDB6913F0805F93
:1058300040F0C580944BDA6942F08052DA61DB694E
:1058400003F080530193019B0125904B1B6813F4D7
:10585000807F00F0B6808C4B1B6A13F4407322D01B
:10586000626802F440729A421DD08748016A21F4AE
:1058700040764FF4803393FAA3F2B2FA82F2844F67
:105880003A4492004FF0010CC2F800C093FAA3F31F
:10589000B3FA83F33B449B0000221A60066211F0C6
:1058A000010F40F0A380784A136A23F440736168C3
:1058B0000B431362002D40F0C580236813F0010FE5
:1058C0000AD0A368032B00F2C2806F4A136B23F047
:1058D0000303A1680B431363236813F0200F0BD05D
:1058E000E36813B1102B40F0B780674A136B23F0C5
:1058F0001003E1680B431363236813F0800F31D06A
:10590000236943B3B3F5807F25D0B3F5887F22D0D8
:10591000B3F5907F1FD0B3F5987F1CD0B3F5A07F6F
:1059200019D0B3F5A87F16D0B3F5B07F13D0B3F577
:10593000B87F10D0B3F5C07F0DD0B3F5C87F0AD0C3
:10594000B3F5D07F07D0B3F5D87F04D040F25D1116
:105950005048FBF763FF4C4AD36A23F4F87321697C
:105960000B43D362236813F4805F0BD0636913B1D8
:10597000B3F5807F75D1444A136B23F4807361695A
:105980000B431363236813F4804F78D0A36913B1DA
:10599000B3F5805F6BD13C4A136B23F48053A1694C
:1059A0000B431363002003B0F0BD72213948FBF7AD
:1059B00035FF29E778213748FBF730FF34E700252A
:1059C00043E7324A136843F480731360FCF7F2FC38
:1059D00006462E4B1B6813F4807F7FF43CAFFCF728
:1059E000E9FC801B6428F4D90320DCE7FCF7E2FC27
:1059F000064615E0244B196A022393FAA3F3B3FA7F
:105A000083F303F01F03012202FA03F30B427FF436
:105A10004AAFFCF7CFFC801B41F2883398422CD868
:105A2000022393FAA3F293FAA3F3B3FA83F35B0985
:105A300043F00203022BDDD0022393FAA3F3124BAF
:105A4000596AD9E7D36923F08053D36135E7BE2182
:105A50001048FBF7E3FE38E7E0210E48FBF7DEFED7
:105A600043E74FF4C7710B48FBF7D8FE83E740F2DA
:105A7000D1110848FBF7D2FE8DE7032093E7002001
:105A800091E700BFA15001000010024000700040EB
:105A90000081901038A50008026852E8003F23F00A
:105AA000C00342E800310029F6D120238367704704
:105AB000026852E8003F23F4907342E80031002965
:105AC000F6D1026802F1080353E8003F23F0010316
:105AD000083242E800310029F3D1036E012B05D0D2
